:020000040800F2
:10000000D8150020AD010008EF2E0008A92C00082B
:10001000ED2E0008350F00087936000800000000BA
:100020000000000000000000000000005130000847
:100030005110000800000000092F0008FD300008E2
:10004000C7010008C7010008C7010008C701000870
:10005000C7010008C7010008C7010008C701000860
:10006000C7010008C7010008C7010008C701000850
:10007000C7010008C7010008C7010008C701000840
:10008000750F0008810F0008C7010008000000007C
:10009000000000000000000000000000C701000890
:1000A000C7010008A1310008C7010008C701000806
:1000B000C7010008C7010008C7010008C701000800
:1000C000C7010008C7010008C7010008C7010008F0
:1000D000C7010008C70100086136000800000000E1
:1000E000C7010008C7010008C701000800000000A0
:1000F000000000000000000000000000C701000830
:1001000000000000C7010008C7010008C70100087F
:1001100000000000000000000000000000000000DF
:10012000C7010008C7010008C7010008C70100088F
:10013000C7010008000000000000000000000000EF
:10014000000000000000000000000000C7010008DF
:10015000C7010008C7010008C70100086D36000884
:10016000C7010008C70100080000000000000000EF
:10017000000000000000000000000000000000007F
:1001800000000000C701000800000000000000009F
:10019000C7010008C7010008DFF80CD000F02EFBF3
:1001A00000480047D1440008D81500200648804781
:1001B00006480047FEE7FEE7FEE7FEE7FEE7FEE74C
:1001C000FEE7FEE7FEE7FEE791310008990100082F
:1001D0002DE9F05F0546002092469B46884606467C
:1001E000814640241BE0284641464746224600F00F
:1001F0001FFA53465A46C01A914110D31146184669
:10020000224600F006FA2D1A67EB01084F462246F7
:100210000120002100F0FDF917EB00094E41201EDE
:10022000A4F10104DFDC484631462A464346BDE8D6
:10023000F09FD2B201E000F8012B491EFBD27047BB
:100240000022F6E710B513460A4604461946FFF7A2
:10025000F0FF204610BD2DE9FE4F804681EA0300E5
:10026000C00F0C46009021F0004123F00045B8EB90
:100270000200A94105D24046214690461C460B4645
:10028000024623F00040104347D0270DC7F30A0071
:10029000C3F30A510290401A019040286BDAC3F36D
:1002A000130040F4801B0098924620B10023D2EB4B
:1002B000030A63EB0B0B01985946C0F1400250460C
:1002C00000F0A7F906460D4650465946019A00F03F
:1002D000BFF910EB08006141002487EA115284EA5B
:1002E000E7731A4340D0009A62B3019A012A4FEA99
:1002F000075215DC001B61EB02014FF0004202EADD
:100300000752CDE90042001C41F5801132462B46D0
:1003100000F0F6F903B0BDE8F08F40462146F9E75A
:10032000001B61EB0201001C41F5801300185B41CA
:100330002018A2F5001747EB030140EAD570B61963
:100340006D4111E06D084FEA360645EAC0754FEA87
:100350000752001B61EB0201001C41F580114908A6
:100360004FEA30000019514132462B4603B0BDE838
:10037000F04F00F0B6B90098012240000023D0EB06
:10038000020263EBE073009821464FEAE074B8EB99
:10039000000061EB0401E9E783F000435BE781F0D3
:1003A000004158E72DE9FE4F81EA030404F00044C0
:1003B00021F0004100944FF0000B23F0004350EA7D
:1003C00001045ED052EA03045BD0C3F30A54C1F3C4
:1003D0000A552C44A4F2F3340194A0FB0254C1F357
:1003E000130141F48011C3F3130343F4801301FBA1
:1003F000024400FB034E840A970A44EA815447EA08
:100400008357A4FB076802958D0A05FB07854FEA11
:10041000932C04FB0C542705029D4FEA065847EA2B
:100420001637B5EB08056EEB070C870E920E47EA00
:10043000811742EA8312A7FB0201B6EB0B0164EBC2
:1004400000042B0D43EA0C335E1844EB1C50DA46D3
:100450005146E7FB0201C5F313044FEA0B3343EAAD
:1004600014534FEA0432019C43EA0603A4F10C043E
:100470000294009CCDE900B400F042F903B0BDE85D
:10048000F08F00200146F9E72DE9F04D81EA0304E1
:1004900004F0004B21F0004514464FF0000A23F011
:1004A000004150EA050220D054EA01021DD0C5F3F4
:1004B0000A570246C5F31303C1F31300C1F30A56EA
:1004C00040F4801543F48013A7EB0608101BD646B2
:1004D00008F2FD3873EB050002D308F1010801E0D2
:1004E00092185B41B8F1000F03DA00200146BDE825
:1004F000F08D00204FF48011064684460EE0171B55
:1005000073EB050705D3121B63EB050306434CEAA7
:10051000010C49084FEA300092185B4150EA01078C
:10052000EDD152EA030012D082EA040083EA050109
:10053000084305D0101BAB4106D20122002306E080
:1005400000224FF0004302E06FF0010253101AEB5B
:1005500006004CEB085110EB0A0041EB0B01BDE823
:10056000F04D00F0BEB80EB5C10F80EAE07008444F
:10057000CA07002140F233438DE80E000A460B46BD
:1005800000F0BEF803B000BD00F0004230F00040C3
:100590000AD0C10D01F56071C0F3160042EA0151A5
:1005A000C20840071143704700200146704701F020
:1005B000004330B421F0004150EA010206D00A0D98
:1005C000A2F56072C1F31301002A02DC30BC0020E6
:1005D0007047440F44EAC104C100E01830BC00EB8E
:1005E000C25000F047B830B50B460146002020222B
:1005F000012409E021FA02F59D4205D303FA02F530
:10060000491B04FA02F52844151EA2F10102F1DC8F
:1006100030BD202A04DB203A00FA02F100207047A6
:100620009140C2F1200320FA03F319439040704730
:10063000202A04DB203A21FA02F00021704721FA37
:1006400002F3D040C2F1200291400843194670479E
:10065000202A06DBCB17203A41FA02F043EAE07386
:1006600006E041FA02F3D040C2F120029140084373
:10067000194670470029A8BF7047401C490008BFB1
:1006800020F00100704710B4B0FA80FC00FA0CF0C2
:1006900050EA010404BF10BC704749B1CCF12004FA
:1006A00021FA04F411FA0CF118BF01212143084387
:1006B000A3EB0C01CB1D4FEA00614FEA102042BFB3
:1006C000002010BC704700EBC35010440029A4BFA9
:1006D00010BC7047401C490008BF20F0010010BC4E
:1006E000704710B5141E73F1000408DA401C41F184
:1006F000000192185B411A4301D120F0010010BDA6
:100700002DE9F04D92469B4611B1B1FA81F202E01B
:10071000B0FA80F220329046FFF77BFF04460F4686
:1007200040EA0A0041EA0B0153465A46084313D0F7
:10073000114653EA010019D0C8F140025046FFF7B4
:1007400077FF05460E46504659464246FFF761FF81
:10075000084305D0012004E020463946BDE8F08D6D
:100760000020054346EAE0762C4337430A986305A8
:10077000E40AA0EB08000022FD0A44EA47540A30CC
:1007800002D500200146E9E7010510196941DDE9BC
:10079000084500196941BDE8F04DA2E7C1F30A52CE
:1007A000C1F3130140F2FF3341F480119A4202DA9F
:1007B00000200146704740F233439A42A2F233428E
:1007C00002DC5242FFF734BFFFF723BF30B5041EEF
:1007D00071F1000404DB4FF00044404264EB01017E
:1007E000141E73F1000405DB1C464FF00043524217
:1007F00063EB0403994208BF904230BD064C074D9D
:1008000006E0E06840F0010394E8070098471034E0
:10081000AC42F6D3FFF7C4FC104900083049000889
:100820002DE9F04F2DED048BADF6641D9FED748A1C
:100830000020F0EE489AF0EE488AB0EE489A9FED1C
:10084000710ADFED710A6C4664ADC8AE0DF59661B4
:100850000DF5C8620DF5FA6704EB8003884683ED59
:10086000000A05EB8003914683ED000A06EB800346
:10087000BA4683ED000A01EB8003C3ED000A02EBE8
:100880008003C3ED000A07EB8003401C80B2C3ED78
:10089000000A6428E0D300F0EDFA5C48DFF870B19C
:1008A0005FF0000790ED000A8BED130A00F074FA78
:1008B00000F0E0FA00F0B8F8564B6846D3ED010AB4
:1008C00093ED000A70EEA88AD3ED020A70EE299A21
:1008D00030EE899A02F0FEF993ED010A64A802F065
:1008E000F9F993ED020AC8A802F0F4F993ED000AB1
:1008F0000DF5966002F0DAF993ED010A0DF5C86086
:1009000002F0D4F993ED020A0DF5FA6002F0CEF987
:100910007F1CBFB244F620608742C7D3F0EE481A6E
:10092000B0EE481AB0EE480A5FF0000004EB800118
:10093000D1ED000A05EB800170EEA11AD1ED000A9D
:1009400006EB8001401C30EE811AD1ED000A80B226
:10095000642830EE800AE9D3B0EE482AF0EE480A67
:10096000002041464B46524601EB8004D4ED002A5C
:1009700003EB800432EE888AD4ED002A02EB800477
:10098000401C32EE822AD4ED002A80B2642872EE36
:10099000A00AE9D379EEE11A39EE400A38EEC11A1D
:1009A0005C4671EEC81A70EE600A9FED1B0A31EECC
:1009B000421A322081EE802AC1EE001A8BED002A05
:1009C00080EE801ACBED011A8BED021A00F008FEC2
:1009D00003F05CFD94ED000A104800F057FC94ED24
:1009E000010A0F4800F052FC94ED020A0D4800F095
:1009F0004DFC0DF6641DBDEC048BBDE8F08F0000CE
:100A00000000000000247449002474C91400002070
:100A1000A80300204C03002000B09A4690780608F6
:100A20009C880608A89806085D4A10B5B2F900002F
:100A30005C4900EE100A5C48B8EEC00A02F05EF9AC
:100A4000594C5849E43484ED000AB2F9020000EE32
:100A5000100AA4F1CC00B8EEC00A02F04FF984ED00
:100A6000010AB2F904004F4900EE100AA4F1B400E3
:100A7000B8EEC00A02F042F984ED020AA4F5AE71A4
:100A800094ED000A01F1300002F038F9A4F13003CE
:100A9000A3F5967183ED000A94ED010A01F1480077
:100AA00002F02CF983ED010AA4F5AE7194ED020A6F
:100AB00001F1600002F022F93C4883ED020AD0ED1A
:100AC000000A3B4890ED001A3A4870EEC10AB0EEB9
:100AD000E01A11EE101AB1F1804F0CDD90ED031AFF
:100AE000DFED351A60EEA10ADFED341A00EEA11A2F
:100AF00080ED021A03E0D0ED030AC0ED020AD0ED4A
:100B0000030A2F4CC0ED020A93ED001AD0ED001A33
:100B100030EE600A244931EE611A603984ED001A22
:100B200093ED011AD0ED011A31EE611A84ED011A2C
:100B300084ED020AB2F9060000EE100A01F1A800E5
:100B4000B8EEC00A02F0DAF8174BC433A3F592717D
:100B500083ED000AB2F9080000EE100A01F1C000AE
:100B6000B8EEC00A02F0CAF883ED010AB2F90A0031
:100B70000D4900EE100A603901F1D800B8EEC00A44
:100B800002F0BCF883ED020AD3ED000AC4ED040ABA
:100B9000D3ED010AC4ED050A84ED060A10BD00007C
:100BA00038030020300000207004002014000020D2
:100BB00010000020A80300208FC2753C6F128341F3
:100BC0004C0300202DE9FE43DFF8F8803E4D4FF442
:100BD000807601223146404600F0AEFE012000F052
:100BE000FFFC04227D21012000F0B0F8372000F046
:100BF000F7FC00227C21012000F0A8F8D5E90101D2
:100C0000CDE9000128680290372000F0E9FC0021BE
:100C1000084600F069F80F2802D00220BDE8FE83E4
:100C200000246F4607EB440017F8141042780020A8
:100C300000F08CF8012000F0D3FC641CE4B2042C1A
:100C4000F0D30021012000F04FF81E2801D003202E
:100C5000E4E700240DF1080707EB440017F814102F
:100C60004278012000F072F8012000F0B9FC641C09
:100C7000E4B2022CF0D30C21144801F027FD40F21D
:100C8000E732B3EE021ADFED120A9FED120A1346A5
:100C90000021114802F02CF91048D0ED000A90ED27
:100CA000010A0D4803F0A2FCBCEEC00A0C4910EE8C
:100CB000100A086000F070F80A48C088002888D040
:100CC0000120ABE700040240E448000810010020C6
:100CD0000000204200003443640500201000002082
:100CE00040040040380300202DE9F041164E41F049
:100CF0008004FF2710B1012822D10CE04FF40078C6
:100D000000224146304600F017FE47EA042002F078
:100D100033F9C5B20FE04FF48078002241463046E7
:100D200000F00AFE47EA042002F026F94FF6FF70B1
:100D300002F022F9050A01224146304600F0FCFD8E
:100D40002846BDE8F0810000000402402DE9F0478C
:100D50001546DFF84080040001F07F064FF400776D
:100D60004FF480794FF0000210D04946404600F021
:100D7000E3FD45EA062002F0FFF84FF001023CB126
:100D800049464046BDE8F04700F0D6BD3946EDE79C
:100D90003946F6E7000402402DE9FF41334E4FF497
:100DA000007800224146304600F0C6FD48F2FF20A0
:100DB00002F0E2F8ADF8000001246F464FF6FF752F
:100DC000284602F0D9F827F81400641CE4B2042C79
:100DD000F6D301224146304600F0AEFD4FF4807854
:100DE00000224146304600F0A7FD49F2FF2002F004
:100DF000C3F8002402AF284602F0BEF827F814001A
:100E0000641CE4B2032CF6D301224146304600F0C4
:100E100093FDBDF80220BDF80030154802F47F4173
:100E2000DBB219430180BDF80410D2B201F47F4354
:100E300013434380BDF80620C9B202F47F420A433F
:100E40008280BDF808100A0242EA1121C180BDF873
:100E50000A100A0242EA11210181BDF80C100A02AF
:100E600042EA11214181BDE8FF81000000040240F7
:100E70003803002070B5264E4FF4807500222946B5
:100E8000304600F059FD4AF2FF2002F075F84FF6A7
:100E9000FF7002F071F8044601222946304600F046
:100EA0004BFD200AC4F3421101EBC000B0F5806F86
:100EB00001D3A0F50060FFF756FB9FED161B53EC26
:100EC000112BFFF76FFA9FED151B53EC112BFFF75A
:100ED000C2F9FFF76CFB134C00EE100A124884EDC8
:100EE000010AD4ED000A03F081FBB5EEC00A84EDDF
:100EF000020AF1EE10FA03D29FED0C0A84ED020A09
:100F00000B49BCEEC00A096810EE100A086470BDF7
:100F100000040240000000000000C03F000000008C
:100F20000000374010000020640500200000000091
:100F300010010020FEE7000010B50B48DFED0B0AA2
:100F40002DED028B9FED0A8AB0EE480A02F082F87E
:100F5000B0EE480ABDEC028BF3EE0E0A0248BDE883
:100F60001040183002F076B8F80300200000484224
:100F700000007A44014800F0F9B90000D8020020CE
:100F8000014800F0F3B9000078020020016818233E
:100F9000CAB2103AB2FBF3F2054B6FF30901032A10
:100FA0009B5CC36500D9091D816508467047000038
:100FB000DC48000810B5014600208B698A6A4FF0B2
:100FC000C07453B1B3F5005F15D072B1012A0CD0D3
:100FD000022A0AD0032A09D104E01AB1012A06D054
:100FE000022A03D1C96AC90100D5012010BDC96A0E
:100FF000A142FAD010BD002AF7D0012AF2D0022A6D
:10100000F3D0032AF3D010BD034900200122087059
:101010001021024800F090BC2C000020000002408B
:1010200010B500221021074800F086FCC82000F00F
:10103000D7FA054901200870BDE81040082103488F
:1010400001F044BB000002402C00002010010020F1
:10105000704772B6FEE70000002229B101291AD0BC
:1010600002291BD04FF440720E490B6823F44073E1
:101070000B600B6813430B600A6822F0F8020A60E9
:101080000A68022303EBC00002430A60086840F4C8
:101090008030086070474FF48072E5E74FF40072CB
:1010A000E2E70000103C02401348016889050FD5B3
:1010B000016821F400710160016841F40061016080
:1010C000016821F400610160016841F40071016070
:1010D000016849050FD5016821F48061016001684C
:1010E00041F480510160016821F480510160016880
:1010F00041F4806101607047003C024008490A6881
:1011000022F440720A600A6842F004020A600A6827
:101110004FF4803343EA002002430A607047000026
:10112000103C0240064A136823F4407313601368AE
:101130001360136843F001031360017070470000EF
:10114000103C0240094910B50C6824F440740C604E
:101150000C6844F440740C600C6844F001040C60AA
:101160000260BFF36F8F436010BD0000103C02406F
:10117000074A136823F440731360136843F48073C1
:101180001360136843F0010313600180704700008F
:10119000103C0240074A136823F44073136013683D
:1011A00043F400731360136843F00103136001609C
:1011B00070470000103C02401C490868C2061C48E9
:1011C00005D5C26942F01002C26110220A600A68A5
:1011D000920605D5C26942F00802C26120220A6067
:1011E0000A68520605D5C26942F00402C261402273
:1011F0000A600A68120605D5C26942F00202C2619D
:1012000080220A600A68D20506D5C26942F001024E
:10121000C2614FF480720A600A68920705D5C269FC
:1012200042F02002C2610220086070470C3C02407C
:101230005000002070B5114904460020C86100F03C
:1012400081FB06460E4D09E0601C07D024B100F07A
:1012500079FB801BA04201D9032070BD2868C00320
:10126000F2D42868C00701D001202860286810F453
:10127000F970F2D0FFF7A0FF012070BD50000020F0
:101280000C3C0240006800EE100A704710B504469E
:101290002DED028BB0EE408A00F048FA18EE102ACD
:1012A00000232146022000F003FABDEC028BBDE8CA
:1012B000104000F0F3B92DE9F0410446876D00F0CD
:1012C00041FB064694F835000025022806D0802010
:1012D000606584F834500120BDE8F0812068016821
:1012E00021F0160101602068416921F0800141610F
:1012F000206C08B9A06C20B12068016821F00801B9
:1013000001602068016821F0010101600CE000F03B
:1013100019FB801B052807D920206065032084F86D
:10132000350084F83450D7E720680068C007EED154
:1013300094F85C103F208840B860012084F83500A4
:1013400084F834500020C7E790F83510022903D004
:101350008021416501207047052180F83510006823
:10136000016821F001010160002070472DE9F84378
:1013700004464FF00009CDF8009063484FF4165131
:10138000A56D0068B0FBF1F72E6894F85C1008209A
:1013900000FA01F131420FD021680A6852070BD5DB
:1013A0000A6822F004020A6094F85C108840A86081
:1013B000606D40F00100606594F85C104FF001082A
:1013C00008FA01F0304208D021684969090604D5BD
:1013D000A860606D40F00200606594F85C10042025
:1013E0008840304208D021680968890704D5A86080
:1013F000606D40F00400606594F85C101020884037
:10140000304218D021680968090714D5A8602068FF
:101410000168490304D50068000308D5A16C07E002
:101420000168C90503D4016821F008010160216C3D
:1014300009B12046884794F85C102020884030424B
:1014400031D021680968C9062DD5A86094F8350007
:1014500005282068016806D0490347D500680003C5
:101460001DD4616C1CE021F0160101602068416907
:1014700021F080014161206C08B9A06C20B1206886
:10148000016821F00801016094F85C103F20884059
:10149000A86084F8358084F83490216D1FE0E16BFA
:1014A00009B120468847606D00282BD0606DC007C9
:1014B00014D0052084F835002068016821F001016E
:1014C00001600098401C0090B84203D82068006872
:1014D000C007F6D184F8358084F83490E16C002997
:1014E00010D001B02046BDE8F04308470168C905A7
:1014F000D5D4016821F01001016084F8358084F8AA
:101500003490CCE7BDE8F883000000202DE9F041DD
:10151000044600F017FA06465CB1022084F8350054
:10152000002584F834502068016821F00101016031
:101530000DE00120BDE8F08100F004FA801B0528D1
:1015400005D920206065032084F83500F2E7206883
:101550000068C007F0D12268116820480140D4E932
:1015600001031843D4E9033633431843636918432E
:10157000A3691843E3691843236A18430843616A5F
:10158000042903D1D4E90B131943084310602068E0
:101590004069666A20F0070130460E43012704289F
:1015A0000CD1A06A0643E06A40B12046FFF702FD75
:1015B00020B14020606584F83570BAE72068466144
:1015C0002046FFF7E3FC94F85C203F2191408160C6
:1015D000656584F835700020ACE700003F8010F0AE
:1015E00070B5044600F0AEF90546601C02D0044810
:1015F0000078044400F0A6F9401BA042FAD370BD65
:10160000040000202DE9F047044622480F46017EE1
:1016100001290AD00121804601764CF25039484612
:10162000FFF708FE020003D02FE00220BDE8F0879C
:101630004FF0FF3038602068174D012801D0A668B0
:101640001CE0207C6168FFF759FD4846FFF7F2FD7A
:101650000246286820F00400286014E0217C30460F
:10166000FFF7FAFC4846FFF7E5FD0200286820F086
:10167000FA00286001D03E6005E0761CD4E9021033
:101680000844B042EAD8FFF70FFD002188F818108F
:101690001046CBE750000020103C02400348016890
:1016A00041F000410160002070470000103C024002
:1016B0002DE9F0471B4E05461446307E1F468946ED
:1016C000012808D0012030764CF250384046FFF710
:1016D000B1FD18B114E00220BDE8F0879DB1012DE5
:1016E00016D0022D19D022463B464846FFF72AFD68
:1016F0004046FFF79FFD0C490A6822F001020A608C
:1017000000213176E8E7E1B24846FFF70BFDEFE74D
:10171000A1B24846FFF72CFDEAE721464846FFF70D
:1017200039FDE5E750000020103C02400749002049
:101730000A68002A09DA054A054B0C3A1360054B82
:1017400013600968002900DA01207047103C02404C
:1017500023016745AB89EFCD2DE9F84FDFF8B8A13C
:101760000022012403254FF00F090AF1040BAAF10E
:10177000040E00BF0B6804FA02F63340B34273D183
:101780000F7907F00307012F01D0022F16D18768C8
:101790004FEA420805FA08FC27EA0C07D1F80CC00A
:1017A0000CFA08FC4CEA070CC0F808C04768B743BD
:1017B0000E79C6F3001696403E4346600E79F64316
:1017C000B6070DD0C768560005FA06FC27EA0C07D5
:1017D000D1F808C00CFA06FC4CEA070CC0F80CC0A3
:1017E0000E7906F00306022E10D1D60800EB86080B
:1017F000D8F8206057074FEAD76C09FA0CF7BE43B8
:101800000F6907FA0CF73743C8F8207006684FEAEB
:10181000420C05FA0CF7BE430F7907F0030707FAED
:101820000CF7374307604E6816F4403F6DD03B4ECF
:10183000376847F480473760366822F0030706F4BC
:1018400080460096364E07EB060CDCF808689707D2
:101850003F0F09FA07F826EA0806DFF8C880404576
:1018600003D14FF000081EE04FE0DFF8BC80404598
:1018700002D14FF0010816E0DFF8B080404502D1F8
:101880004FF002080FE0DFF8A880404502D14FF08A
:10189000030808E0DFF89C80404502D14FF00408BF
:1018A00001E04FF0070808FA07F848EA0608CCF804
:1018B0000888DAF800605746D1F804C09E435FEA12
:1018C000CC2C00D51E433E60DBF800605F46D1F8AB
:1018D00004C09E435FEA8C2C00D51E433E60DEF8B8
:1018E00000607746D1F804C09E435FEA8C3C00D587
:1018F0001E433E60084F083F3E68D1F804C09E4337
:101900005FEACC3C00D51E433E60521C102AFFF417
:1019100031AFBDE8F88F0000083C01404438024078
:101920000030014000000240000402400008024074
:10193000000C0240001002400AB1816170470904A6
:10194000FBE70000014880687047000004000020A9
:1019500002488168027811448160704704000020C9
:101960000B4810B5016841F400710160016841F451
:1019700080610160016841F480710160032000F022
:101980006FF80F2000F006F800F024F8002010BDDA
:10199000003C024070B50D4D04464FF47A71287832
:1019A000B1FBF0F00A490968B1FBF0F000F098FCD7
:1019B00048B9102C07D200222146501E00F030F802
:1019C00000206C6070BD012070BD0000040000208C
:1019D000000000200A4808B5016841F48041016018
:1019E000006800F4804000900548001F016841F045
:1019F00080510160006800F08050009008BD000038
:101A000044380240002809DB00F01F020121914008
:101A10004009800000F1E020C0F80011704700008C
:101A2000F0B40E4B1B680C46C3F30223C3F1070549
:101A3000042D00D90425191D072901D2002300E037
:101A4000DB1E012606FA05F1491E214099409E4001
:101A5000761E16403143F0BC01F033BE0CED00E0C1
:101A6000064900F0070208684FF6FF03184040EAF5
:101A70000220034A10430860704700000CED00E0AC
:101A80000000FA052DE9F0470E46050065D0DFF8A5
:101A90001481D8F80000F7B200F00700B04207D276
:101AA00088F80070D8F8000000F00700B04254D168
:101AB00028683D4C810712D5400703D5206840F4C3
:101AC000E05020602878000703D5206840F460408B
:101AD00020602068A96820F0F00008432060287882
:101AE000C0072DD0304968680839012812D0022873
:101AF00013D0032811D00968890700292DDA21683D
:101B000021F0030101432160FFF71CFF814641F2F0
:101B1000883A0EE009688903EFE709688901ECE774
:101B2000FFF710FFA0EB0901514502D90320BDE8E2
:101B3000F0872068696800F00C00B0EB810FEFD1EE
:101B4000D8F80010404601F00701B14207D90770EC
:101B5000006800F00700B04201D00120E7E72878D4
:101B6000400705D52068E96820F4E050084320606C
:101B70002878000706D52068296920F4604040EAEB
:101B8000C100206000F038F82168084AC1F3031151
:101B9000515CC8400649086006480068FFF7FAFE35
:101BA0000020C4E7003C024008380240C448000856
:101BB000000000200800002004480549006809686A
:101BC000044AC1F38221515CC840704700000020E4
:101BD00008380240D44800080448054900680968EC
:101BE000044AC1F34231515CC840704700000020F4
:101BF00008380240D4480008104810B5006810F0BA
:101C00000C010F4818D0042916D0082914D10B4C08
:101C1000241F216801F03F02216821680023C1F3DD
:101C20008811A1FB0001FEF7D3FA2168C1F301413D
:101C3000491C4900B0FBF1F010BD0000083802401B
:101C40000024F4002DE9F84F04006ED02078DFF86E
:101C50004C93C007A9F104054AD009F104000168BA
:101C6000C1F38101012908D00068C0F38100022876
:101C70000AD1D9F80000400206D52868800337D57C
:101C800060680028E1D033E06068B0F5803F10D094
:101C9000B0F5A02F286810D020F480302860286884
:101CA00020F4802028606068A8B1FFF74BFE06464C
:101CB0000DE0286840F48030F4E740F4802028608C
:101CC000F7E700BFFFF73EFE801B642873D8286843
:101CD0008003F7D50CE0FFF735FE064605E000BFB0
:101CE000FFF730FE801B6428F0D828688003F7D403
:101CF0002078DFF8AC8280074FF0000A3ED5A74875
:101D0000001D016811F00C0F08D00068C0F38100BD
:101D100002280BD1D9F80000400207D428688007B8
:101D200016D5E068012800D112E033E1E068B8B1CF
:101D30000120C8F80000FFF705FE064605E000BFD9
:101D4000FFF700FE801B0228C0D828688007F7D55F
:101D50002868216920F0F80040EAC10028600DE001
:101D6000C8F800A0FFF7EEFD064604E0FFF7EAFD25
:101D7000801B02281FD828688007F7D42078000726
:101D800022D5864F87486169703771B101210160A2
:101D9000FFF7D8FD064604E0FFF7D4FD801B0228BC
:101DA00009D838688007F7D50EE0C0F800A0FFF723
:101DB000C9FD064605E082E0FFF7C4FD801B02284E
:101DC0007DD838688007F7D42078400768D5DFF8D9
:101DD000CCB100270BF13C0BDBF80000C0000BD4AA
:101DE000DBF8001041F08051CBF80010DBF8000068
:101DF000012700F0805000906B4E3068C00510D471
:101E0000306840F480703060FFF79CFD009005E082
:101E1000FFF798FD0099401A022850D83068C00595
:101E2000F6D55E4EA0686C3601280FD005283068C4
:101E300010D020F001003060306820F004003060E5
:101E4000A068B8B1FFF77EFD00900FE0306840F069
:101E50000100F4E740F004003060F7E7FFF772FD9F
:101E60000099411A41F28830814266D83068800773
:101E7000F4D50EE0FFF766FD009007E0FFF762FD86
:101E80000099411A41F28830814256D83068800763
:101E9000F4D42FB1DBF8001021F08051CBF8001002
:101EA000A069C8B33D49091D0968C1F38101022930
:101EB0004AD00228504607D0C8F8600000E03CE055
:101EC000FFF740FD04463BE04746C8F86000FFF7D7
:101ED00039FD064605E000BFFFF734FD801B0228F0
:101EE0002BD828688001F7D4D4E907010843A16AF8
:101EF0002E4A490802EB0141626A41EA8211084315
:101F000094F82C1040EA0161C9F8001001203866ED
:101F1000FFF718FD044606E03EE000BFFFF712FDA4
:101F2000001B022809D828688001F7D534E000BFDB
:101F3000FFF708FD001B022802D90320BDE8F88F37
:101F400028688001F4D427E00128F7D0D9F80000F0
:101F5000E26900F4800191421CD1226A00F03F0145
:101F6000914217D147F6C071626A0140B1EB821FFE
:101F700010D1A26A4FF0FF3300F4403103EB52025C
:101F8000B1EB024F06D194F82C1000F07060B0EB6A
:101F9000016F01D00120D1E70020CFE704380240D3
:101FA00000004742800E4742007000400000FFFFE3
:101FB00070B5040009D0606A002540B125616561F3
:101FC000A56294F8510040B10CE0012070BD60683A
:101FD000B0F5827FF4D0E561F2E784F850502046F6
:101FE00000F044F8022084F851002068016821F0D4
:101FF00040010160A088218900F4827001F404414D
:102000000843A18901F400610843217C01F0020129
:102010000843217D01F001010843218B01F4007187
:102020000843217F01F03801084394F8201001F0A3
:1020300080010843218D01F40051084321680860A4
:10204000A069042101EA104094F8241001F0100165
:102050000843216848602068C16921F40061C161BA
:102060006565012084F85100002070BDF0B587B08F
:10207000044614216846FEF7E3F81A4920688842AE
:102080002DD119480024016841F400410160006825
:1020900000F40040059014481038016841F0020136
:1020A00001600068022500F0020005904FF48050A6
:1020B000CDE90005032602940720CDE903600B4F0C
:1020C00069463846FFF748FB3020CDE90005029409
:1020D0000620CDE9036069463846FFF73DFB07B0AF
:1020E000F0BD0000003C00404038024000040240C7
:1020F0002DE9FF4F81B01D46934604464FF001097C
:102100000E9EFFF71FFC074694F8510061680128F6
:1021100006D0B1F5827F3CD1A168C9BB042838D173
:102120000298002871D0BBF1000FFBD0002DF9D030
:1021300094F8500001282CD04FF0010A84F850A0E8
:1021400094F85100042802D0052084F851004FF083
:102150000008C4F85480C4F838B0E587A587029910
:102160002163E586A586C4F84080C4F844802068D1
:102170000168490603D4016841F040010160E0684C
:10218000B0F5006F606808D0F0B3012D49D081E050
:10219000FFE7022005B0BDE8F08F08B1012D39D16D
:1021A000206B21680088C860206B801C2063E08E53
:1021B000401EE0862EE02068816889070FD5E18EF9
:1021C00069B1B9F1010F0AD1216B0988C160206B97
:1021D000801C2063E08E401EE0864FF000092068DE
:1021E0008168C9070CD0E18F51B1C068A16B08802C
:1021F000A06B801CA063E08F401EE0874FF00109B8
:10220000FFF7A0FBC01B01E00BE067E0B04201D389
:10221000701C50D1E08E0028CDD1E08F0028CAD1AB
:102220003EE0206B216800780873206B401C20631F
:10223000E08E401EE0862DE02068816889070FD57A
:10224000E18E69B1B9F1010F0AD1216B09780173EF
:10225000206B401C2063E08E401EE0864FF000099A
:1022600020688168C9070CD0E18F51B1C068A16BAB
:102270000870A06B401CA063E08F401EE0874FF009
:102280000109FFF75FFBC01BB04202D3701C01D0F5
:1022900011E086B1E08E0028CED1E08F0028CBD1AE
:1022A0003A463146204600F031FE50B120206065AC
:1022B00084F8508012E084F851A084F85080032004
:1022C00068E7A06818B92068C1688068009084F841
:1022D00051A084F85080606D0028F1D0012059E7AA
:1022E00010B5401EB0F1807F01D3012010BD4FF02A
:1022F000E02460610F21601701F0E3F90020A06184
:1023000007202061002010BD7047704770B590F81D
:102310003C20012A2CD0012480F83C40022280F885
:102320003D2003685A689D6822F070060A683243AF
:102330005A60104B02689A420ED0B2F1804F0BD017
:102340000D4B9A4208D00D4B9A4205D00C4B9A4245
:1023500002D00C4B9A4204D1496825F080031943FE
:10236000916080F83D40002180F83C10084670BD27
:10237000022070BD00000140000400400008004041
:10238000000C00400040014090F83D10012901D0B0
:1023900001207047022180F83D100168CA6842F0B0
:1023A0000102CA6000680E4988420ED0B0F1804F29
:1023B0000BD00C49884208D00B49884205D00B4904
:1023C000884202D00A49884204D1816801F007019D
:1023D000062903D0016841F0010101600020704727
:1023E000000001400004004000080040000C0040D4
:1023F0000040014070472DE9F04104460068C6687E
:1024000005694FF00007A90713D5B10711D5F91ECB
:10241000016101202077206880698007204602D072
:10242000FFF7E8FF04E000F0A7F8204600F04CF9C1
:102430002777680716D5700714D521686FF0040058
:102440000861022020772068806910F4407F2046D0
:1024500002D0FFF7CFFF04E000F08EF8204600F036
:1024600033F92777280715D5300713D521686FF082
:1024700008000861042020772068C0698007204692
:1024800002D0FFF7B7FF04E000F076F8204600F036
:102490001BF92777E80616D5F00614D521686FF0EA
:1024A00010000861082020772068C06910F4407F80
:1024B000204602D0FFF79EFF04E000F05DF82046C2
:1024C00000F002F92777E80708D0F00706D0216866
:1024D0006FF001000861204600F050F9280608D589
:1024E000300606D521686FF0800008612046FFF7AE
:1024F0000BFF680608D5700606D521686FF040000E
:102500000861204600F03BF9A8060AD5B00608D5B8
:1025100021686FF0200008612046BDE8F041FFF718
:10252000F4BEBDE8F081000010B586B00446142169
:102530006846FDF785FE0D492068884214D10C4895
:102540000021026842F002020260006800F002000E
:102550000590032000900220CDE90101CDE9031090
:1025600069460448FFF7F8F806B010BD00040040C3
:102570003038024000040240704770B5044690F8BD
:102580003C0000260D4601280FD0012084F83C00B5
:102590006AB1042A1DD0082A2FD00C2A3FD0012668
:1025A000002084F83C00304670BD022070BD2068D9
:1025B00000F064FE2068816941F0080181612068B3
:1025C000816921F004018161206881692A691143D0
:1025D00011E0206800F07AFE2068816941F4006112
:1025E00081612068816921F480618161206881694D
:1025F0002A6941EA02218161D2E7206800F092FE57
:102600002068C16941F00801C1612068C16921F0F9
:102610000401C1612068C1692A69114311E0206881
:1026200000F0ACFE2068C16941F40061C16120681E
:10263000C16921F48061C1612068C1692A6941EAE8
:102640000221C161ACE710B5040003D094F83D004D
:1026500010B107E0012010BD002084F83C002046A6
:1026600000F01EF8022084F83D00211D206800F0D3
:10267000A5FD012084F8460084F83E0084F83F0060
:1026800084F8400084F8410084F8420084F8430054
:1026900084F8440084F8450084F83D00002010BD13
:1026A00008B500680649884208D10648016841F02B
:1026B00002010160006800F00200009008BD000007
:1026C00000040040403802407047000010B5044646
:1026D000022249B104290ED0082913D094F84100F0
:1026E000012816D0012010BD94F83E000128F9D130
:1026F00084F83E200FE094F83F000128F2D184F8DE
:102700003F2008E094F840000128EBD184F84020F5
:1027100001E084F841200122206800F0A1FD124967
:102720002068884203D1426C42F40042426420682F
:1027300088420ED0B0F1804F0BD00C49884208D0AF
:102740000B49884205D00B49884202D00A49884289
:1027500004D1816801F00701062903D0016841F026
:1027600001010160002010BD000001400004004094
:1027700000080040000C00400040014070477047D6
:102780007047000000680349884202D102490020D6
:10279000087070470044004024000020F8B501682C
:1027A00004460868CA684B6910F00F0F4FF0000527
:1027B00059D003F0010602F49077374365D0C10782
:1027C00005D0D10503D5616C41F001016164410779
:1027D00005D5D90703D0616C41F00201616481071E
:1027E00005D5D90703D0616C41F00401616401078C
:1027F00007D502F02001314303D0616C41F008019C
:102800006164616C00293AD0800604D5900602D537
:10281000204600F004FE20684069616CC0F380101F
:10282000090700D460B3204600F0D2FD206840695B
:10283000400621D52068143050E8001F21F04001E7
:1028400040E80012002AF5D1E06BA8B16E4901659D
:10285000E06BFEF779FD002811D0E06B016D01B04F
:10286000BDE8F040084783060FD593060DD52046F6
:10287000BDE8F84000F0D3BD2046FFF783FFF8BD68
:102880002046FFF77FFF6564F8BD266B2023012EED
:102890007DD1C6067BD5D60679D5086848680090F4
:1028A00048694FF00206400641D5E16B0868406870
:1028B0000004000CE8D0A28D8242E5D9E085C86909
:1028C000B0F5807F2DD020680C3050E8001F21F437
:1028D000807140E80012002AF5D12068143050E8D9
:1028E000001F21F0010140E80012002AF5D1206804
:1028F000143050E8001F21F0400140E80012002A87
:10290000F5D184F84230256320680C3050E8001F70
:1029100021F0100140E80012002AF5D1E06BFEF72B
:10292000CAFC6663A08DE18D401A81B22AE0A08DB9
:10293000E18D401A81B2E08D0028A5D00029A3D0F6
:1029400022680C3252E8000F20F4907042E8000731
:10295000002FF5D12068143050E8002F22F001023A
:1029600040E80027002FF5D184F842302563206825
:102970000C3050E8002F22F0100240E80023002B1A
:10298000F5D166632046FFF7FBFEF8BDFFE70506BD
:102990002BD5150629D594F841002128F5D1A0683A
:1029A000B0F5805F01D12069B0B1206A411C21627D
:1029B000216800784860E08C401E0004000CE08430
:1029C000E3D12068C16821F08001C1602068C1683E
:1029D00041F04001C160D8E7206A0088C0F30800D8
:1029E0004860206A801C2062E5E74006CDD550068D
:1029F000CBD5CA68204622F04002CA6084F8413034
:102A000000F046F9C1E70000C133000870B50400CA
:102A100004D094F84100002510B106E0012070BDFB
:102A200084F84050204600F023F8242084F8410028
:102A30002068C16821F40051C160204600F050FDBB
:102A40002068016921F4904101612068416921F009
:102A50002A0141612068C16841F40051C160656488
:102A6000202084F8410084F842006563002070BD96
:102A70002DE9F04186B0064614216846FDF7E0FBDB
:102A80005448DFF84C81D6F800C05249143802226D
:102A900003230727504D0024C4451BD10E6846F080
:102AA00010060E60096801F010010591016841F0FF
:102AB000010101600068694600F0010005905802BC
:102AC0008DE81500CDE903372846FEF745FE06B030
:102AD000BDE8F081DFF80481C44552D13D49091FAA
:102AE000D1F800C04CF4003CC1F800C0096801F402
:102AF00000310591016841F00101016000686946FB
:102B000000F0010005900C208DE81500CDE9033799
:102B10002846FEF721FE334D31484FF00067E5E8C7
:102B2000020740204FF48068A5E811012D4845F8C0
:102B30001449AC61EC612C626C62FEF7E7FC08B1F1
:102B4000FEF787FAB563AE63264D25486035183821
:102B50002860C5E90174C5E903486C61AC61EC61AA
:102B60002C6228466C62FEF7D1FC08B1FEF771FAC0
:102B7000F563002211462620AE63FEF751FF2620A2
:102B800023E0194EB445A2D10E6846F020060E602F
:102B9000096801F020010591016841F0010101601F
:102BA0000068694600F0010005904FF4C0508DE8C0
:102BB00015000820CDE903302846FEF7CDFD0022A0
:102BC00011464720FEF72CFF4720FEF71BFF7EE74C
:102BD0000010014044380240000002400044004020
:102BE000A0600240780200200014014070472DE9E7
:102BF000F843044690F84100984616460D462028B2
:102C000002D00220BDE8F88385B17EB10020606467
:102C1000212084F84100FEF795FEA6848146E684D3
:102C2000A0682027B0F5805F02D003E00120E9E72B
:102C3000206910B12E4600250EE000260CE0802110
:102C4000204600F0D3FCA8B9C6B116F8010B2168E4
:102C50004860E08C401EE084E08C4B464FF0000260
:102C6000CDF800800028EAD14FF04001204600F066
:102C7000BDFC40B184F841700320C3E735F8020B76
:102C8000C0F30800E3E784F841700020BAE70000D1
:102C900000680349884202D1024900200870704749
:102CA0000044004024000020FEE700005FF06301C4
:102CB00000EB8102D2ED000AF4EEC00AF1EE10FA48
:102CC00007D2632901DAC2ED010A82ED000A491E2A
:102CD000EED570475FF0630100EB8102D2ED000A90
:102CE000F4EEC00AF1EE10FA07DD632901DAC2ED55
:102CF000010A82ED000A491EEED57047F0EE400A47
:102D0000C0ED020A91ED030AD1ED041A90ED011A0B
:102D100020EE200A90ED002AD0ED032A01EE810A70
:102D2000D1ED051A01EE820A91ED012AD0ED041AC7
:102D300002EE610A91ED022A02EE620A80ED050AB6
:102D400080ED001AC0ED010AC0ED031A80ED040AFF
:102D5000704700002DE9F04186B014216846FDF768
:102D60006FFA1F480025016841F080010160016889
:102D700001F080010591016841F0010101600168E5
:102D800001F001010591016841F002010160006854
:102D9000144F00F002000590002210213846FEF783
:102DA000CBFDDFF844804FF44076012231464046A7
:102DB000FEF7C2FD01241020CDE900046946384623
:102DC000CDE90245FEF7C8FC0220CDE90250CDE96D
:102DD000006469464046FEF7BFFC06B0BDE8F081DE
:102DE000303802400000024000040240104810B594
:102DF0000E4901604FF48271416000214FF400627E
:102E0000C0E9021292100161C0E905121022C0E966
:102E10000721416281620A21C162FFF7C9F80028D7
:102E200003D0BDE81040FEF714B910BD003C0040CF
:102E30007000002010B58AB0002407941C21684659
:102E40000894FDF7FDF91A48184901606321C0E9AB
:102E5000011440F2E731C0E903148461FFF7F3FB8A
:102E600008B1FEF7F6F8079407A911480894FFF790
:102E70004DFA08B1FEF7EDF86020CDE900040294A8
:102E8000082269460A480494FFF777FB08B1FEF769
:102E9000E0F80C2269460648FFF76FFB08B1FEF721
:102EA000D8F80348FFF740FB0AB010BD000400400B
:102EB000100100200C4810B50A4901604FF461214F
:102EC0004160002181600C22C160C0E9041281616F
:102ED000C161FFF79BFD002803D0BDE81040FEF75D
:102EE000B8B810BD00440040E8010020FEE7FEE74E
:102EF00030B4034C8466034CC46630BC01F06ABC39
:102F0000D5470008E347000870470000F8B51546AC
:102F10000E460B46009204460122022100F03CF8C6
:102F2000A0B9134813490068B0FBF1F04FF47A716F
:102F3000484300906068B0F5827F0DD1334600228F
:102F400080212046009500F027F870B1606D40F0B8
:102F5000200060650320F8BD009830B1401E00904D
:102F600020688068C0430006F6D50020F8BD000048
:102F70000000002000366E0101B582B04FF47A7077
:102F80000090012301AA02A90248FFF7B1F8BDF899
:102F900004000EBD700000202DE9F8431E46914646
:102FA00088460446089DFEF7CDFC401B351AFEF707
:102FB000C9FC074625480068C0F3CB30684338E0B9
:102FC000701C37D0FEF7BEFCC01BA84203D215B15F
:102FD000009860B32CE02068416821F0E001416076
:102FE0006068B0F5827F0BD1A068B0F5004F02D0C9
:102FF000B0F5806F04D12068016821F040010160C4
:10300000A06AB0F5005F09D12068016821F4005181
:1030100001602068016841F400510160012084F8DA
:103020005100002084F850000320BDE8F8830025FB
:10303000401E00902068816838EA010004D0002119
:103040004945BDD10020F0E70121F9E7000000204B
:103050007047000010B59FED271A04462DED068B32
:10306000B0EE60AAC0EE0A0A81EE200A00F0E2FB90
:10307000DFED21AAB0EE408AB0EE6A0A00F032FB22
:10308000B0EE009AF7EE008A20EE090AF0EE689A98
:10309000B5EEC0AA40EE089A48EE089AF1EE10FA92
:1030A00025D928EE080AC0EE290AC4ED030A20EE4D
:1030B000890A84ED040AB0EE680AC4ED050A18EE28
:1030C000080AC4ED008A20EE090AC0EE290AB0EE13
:1030D0006A0AC4ED010A00F005FB20EE090A40EE81
:1030E000488A48EE088A88EEA90A84ED020ABDECF7
:1030F000068B10BDDB0F4940DB0F493FFEF728BCB4
:1031000030B593B030216846FDF79AF814210CA829
:10311000FDF796F81C480025016841F080510160D8
:10312000006800F0805011901848016841F4404157
:1031300001600068022400F44040119001200090DA
:10314000000401908001CDE9064008200890642029
:10315000CDE9090404200B906846FEF773FD08B121
:1031600072B6FEE70CA90F2081E831004FF48050C1
:10317000CDE90F0503210CA8FEF784FC002801D03F
:1031800072B6FEE713B030BD403802400070004018
:103190000248016841F470010160704788ED00E069
:1031A00010B50448FFF727F9BDE810400248FFF7C3
:1031B00022B90000C800002058010020F0B50268C4
:1031C000204B214C9F03214D214E984207D0B842FD
:1031D00005D0A04203D0A84201D0B04204D122F0D1
:1031E000700C4A6842EA0C02984210D0B8420ED0E5
:1031F000A0420CD0A8420AD0B04208D0154CA04240
:1032000005D0154CA04202D0144CA04203D122F4A8
:103210004074CA6822434C6922F080022243026053
:103220008A68C2620A688262984201D109690163B0
:10323000012141610169C90703D0016921F0010140
:103240000161F0BD000001400004004000080040A2
:10325000000C004000400140004401400048014093
:1032600010B501F01F030121046A99408C430462E8
:10327000016A9A401143016210BD000030B5036A33
:10328000026A22F0010202624268846924F0730536
:103290000C682C4323F002058B682B430A4DA8428F
:1032A0000BD123F00805CB6822F440722B434D6903
:1032B00023F0040315438A692A4342608461496804
:1032C0004163036230BD00000000014030B5026A76
:1032D000036A23F010030362436884690D6824F4D1
:1032E000E64444EA05248D6822F0200242EA0512F1
:1032F0000B4DA8420ED1CD6822F0800242EA0512A1
:103300004D6923F4406343EA85038D6922F040024E
:1033100043EA85034360846149688163026230BD8A
:103320000000014030B5036A026A22F48072026232
:103330004268C46923F4007324F073050C682C43BD
:103340008D6843EA05230C4DA8420ED1CD6823F4C5
:10335000006343EA05234D6922F4405242EA051214
:103360008D6923F4806342EA05124260C4614968B2
:10337000C163036230BD00000000014030B5046A43
:10338000026A22F4805202624268C3690D6823F423
:10339000E64343EA05238D6824F4005444EA0534E7
:1033A000064DA84204D14D6922F4804242EA8512BA
:1033B0004260C36149680164046230BD000001409D
:1033C00010B5806B0021C185C184FFF7DBF910BD0A
:1033D00001680C3151E8002F22F4907241E800237B
:1033E000002BF5D10168143151E8002F22F00102C1
:1033F00041E80023002BF5D1016B012909D10168B7
:103400000C3151E8002F22F0100241E80023002B7C
:10341000F5D1202180F8421000210163704708B5E2
:1034200090F84210222901D0022008BD82684FF492
:1034300080539A4201D1016921B1816A9A421BD01D
:103440004AB10AE00268816A5268C2F308020A803F
:10345000816A891C08E0026972B10268526802F050
:103460007F020A70816A491C8162C18D491E09046C
:10347000090CC18503D01BE002685268F1E70168BE
:10348000CA6822F02002CA600168CA6822F4807209
:10349000CA6001684A6922F001024A61202180F86D
:1034A000421000214163026B012A03D0FFF79EFB0B
:1034B000002008BD016301680C3151E8002F22F0A3
:1034C000100241E80023002BF5D101680A68D206FA
:1034D00002D50A6849680091818DFFF751F9E7E745
:1034E00070B5044600680169E26821F44051114357
:1034F00001612169A068E2690843616911430843D9
:103500002168CA6849F20C639A430243CA60206882
:103510004169A26921F44071114341613149206838
:10352000884202D03049884202D1FEF755FB01E0C3
:10353000FEF742FBE2690023192164253226B2F529
:10354000004F626828D0A0FB0101930F9200FCF7A6
:103550003FFE0146B0FBF5F06FF01802504301EB5F
:10356000800006EB0010B0FBF5F000F0F002B1FBBC
:10357000F5F002EB0012B1FBF5F06FF018035843C1
:1035800001EB800006EB0010B0FBF5F000F00F003F
:1035900021681044886070BDA0FB010192185B4156
:1035A000FCF716FE0146B0FBF5F00201B1FBF5F0A9
:1035B0006FF01803584301EB800006EBC000B0FB2E
:1035C000F5F000F0F80002EB4002B1FBF5F05843D3
:1035D00001EB800006EBC000B0FBF5F000F0070047
:1035E000D6E7000000100140001401402DE9F84327
:1035F000984617460D460446089E24E0701C22D0CB
:10360000FEF7A0F9A0EB0800B0421AD8CEB12068AE
:10361000C168490717D5802D15D0402D13D00168FA
:10362000C94309070FD4016800254068009020466F
:10363000FFF7CEFE0820606484F840500120BDE80A
:10364000F8830320FBE72068006835EA000004D017
:103650000020B842D2D00020F1E70120F9E70000B5
:103660000148FFF79BB80000E80100200148FFF780
:1036700095B8000030020020FEE700000FB4054BB3
:1036800010B503A9044A029800F028FB10BC5DF8AD
:1036900014FB0000B9440008480000204100080263
:1036A00018BF04200A0E18BF40F001004FF07F42FF
:1036B00032EA010108BF40F00200012808BF0520DE
:1036C00070470907090E002804DB00F1E02080F8AC
:1036D0000014704700F00F0000F1E02080F8141D86
:1036E0007047000010EE101A08B5444A6846B2EB65
:1036F000410F28D94FF0E640B0EB410F94BF0020B6
:103700004FF0FF3000900098002861DB60EE000A67
:1037100010F0010F45D010F0020FDFED391A9FEDC8
:10372000391A00EEE11ADFED381A40EE811A21EE67
:10373000A01AF0EE400A40EE010A08BFF1EE600A5E
:10374000B0EE600A08BD314B21F0004293423CD9F3
:1037500011F0004FDFED2E0A20EE201ADFED2D0ACA
:1037600019BF31EE601A71EE200A31EE201A71EEA7
:10377000600ABDEEE01A11EE100A9FED271A00F064
:10378000030000EEC10A9FED251A009000EEC10A69
:103790009FED231A00EEC10A9FED221A00EEC10A26
:1037A000B1E79FED211A9FED210A10F0020F00EE04
:1037B000810A9FED1F1A00EE801AB7EE000A00EE94
:1037C000810A18BFB1EE400A08BD00F005F99AE77A
:1037D00010EE100A4000B0F17F4F3CBFB7EE000A78
:1037E00008BD07D14FF0010000F0B0F9BDE8084076
:1037F00000F0E2B8BDE8084000F0DAB8B61F927EEB
:10380000336D4C39DA82083CA0AA2ABE490E4946DB
:1038100083F9223F0000004B0000C93F00A0FD39A2
:103820000020A2331A61342CB93AB2BACA9F2A3D99
:10383000DDFFFFBE00B510EE101A2DED028B81B03A
:103840004D4A6846B2EB410F3CD94FF0E640B0EB31
:10385000410F94BF00204FF0FF3000900098B0EE71
:10386000408A00285FDB28EE080ADFED440A9FED5E
:10387000441A00EE201ADFED430A40EE010A9FEDE4
:10388000421A00EE201ADFED410A10F0010F40EE5F
:10389000010A9FED3F1A00EE201A61EE000AB0EE19
:1038A000480A08EE200A02BF01B0BDEC028B00BD41
:1038B000BFEE001A01B0C1EE000ABDEC028BB0EE03
:1038C000600A00BD334B21F00042934228D911F029
:1038D000004FDFED310A20EE201ADFED300A19BF6C
:1038E00031EE601A71EE200A31EE201A71EE600A94
:1038F000BDEEE01A11EE100A9FED291A00F0030048
:1039000000EEC10A9FED271A009000EEC10A9FED5C
:10391000261A00EEC10A9FED251A00EEC10A9DE7A6
:1039200000F05AF89AE718EE100A4000B0F17F4F05
:103930000DD218EE100AFFF7B1FE042808BF00F000
:1039400043F8B0EE480A01B0BDEC028B00BD09D1CE
:10395000012000F0FBF801B0BDEC028B5DF804EB38
:1039600000F02AB801B0B0EE480ABDEC028B5DF859
:1039700004EB00F01DB80000B61F927EBBE9223CAC
:103980000C6D063B8A76CE3CACB5593D35A1083E60
:1039900029AAAA3E490E494683F9223F0000004B5E
:1039A0000000C93F00A0FD390020A2331A61342C69
:1039B00030EE000A70470000DFED020A80EEA00A38
:1039C00070470000000000009FED020A20EE000A90
:1039D00070470000000000102DE9F0014FF07F4219
:1039E000B2EB410F9FBF4FF0FF310160BDE8F00126
:1039F00070474FF0004242EA0123C1F3C752783AC0
:103A0000551112F01F0C434CCCF120067C44C1F33D
:103A1000C752A2F178024FEA621204EB820254F814
:103A2000254008BFD2E9015612D0556804FA0CF4BB
:103A300025FA06F73C43976805FA0CF527FA06F8CD
:103A4000D26807FA0CFCF24045EA08054CEA020687
:103A5000A4FB034CA5FB0352A6FB03631D449D423C
:103A600034BF012600261319334416B1934202D9FC
:103A700003E0934201D2012200E00022624402F1FD
:103A8000200C9206DC0C42EA443200EE102A5B0362
:103A9000DFED210AF8EEC01A00EE103A4FEA9C1C46
:103AA00011F0004FB8EE400AC0F800C020EE201A16
:103AB00000EE105ADFED190AB8EE400A20EE200A97
:103AC00071EE810A70EE800A10EE902A02F5006213
:103AD0006FF30B0200EE902A70EEE11A31EEC11A7C
:103AE000DFED101A30EE411A9FED0D0A20EE800A2C
:103AF00001EE210A9FED0C1A00EE810A04BFBDE819
:103B0000F0017047CCF180510160BDE8F001B1EEE9
:103B1000400A7047E00E0000000000360000802CD4
:103B200022AAFD29DB0FC92F0000C92F02E008C817
:103B3000121F08C1002AFAD170477047002001E027
:103B400001C1121F002AFBD1704700000149086023
:103B5000704700004C0000202DE9FF5F82B000217B
:103B6000DDE90430020DDDF840B0034318D044F61F
:103B70001050A2F2FF3242431514119801281FD0B1
:103B8000A5EB0B00401C5FEA000A4FF000064E4F09
:103B9000DFF83891B046504615D5CAF1000413E05D
:103BA000119801244AA3012801D16FEA0B01029860
:103BB000119AC0E90031C0E9024206B0BDE8F09FA9
:103BC000CBF10000DFE704460021404A491842EBF0
:103BD0000450CDE9001012E0E00707D032463B4622
:103BE00040464946FCF7DEFB8046894632463B4666
:103BF00010461946FCF7D6FB06460F466410002C0B
:103C0000EAD1DDE90401DDE90023BAF1000F06DAAB
:103C1000FCF7C8FB42464B46FCF7C4FB05E0FCF74B
:103C200033FC42464B46FCF72FFC04460E4600226E
:103C3000284BFCF7CBFD03D84FF0FF30014607E0DF
:103C40000022254B20463146FCF705FBFCF7A6FD7C
:103C5000102409E0002C0ADB0A220023FCF7B8FA42
:103C6000039B30321A55641E50EA0102F2D1641CE3
:103C7000039AC4F111031444119A012A03D00122BA
:103C800008430DD10AE0084304D000204FF0110B87
:103C9000119072E7A3EB0B056D1E0DE05B4504DD93
:103CA0004FF0000205F1010504E003DA4FF00002D5
:103CB000A5F10105002AECD002981199C0E9023162
:103CC000C0E9004579E70000000014400000F03F23
:103CD000300000000000F0430000E03F2DE9FF4FFE
:103CE00095B09B468946064600250FE2252877D1E8
:103CF00000242746F84A0121059400E0044316F801
:103D0000013F203B01FA03F01042F7D130782A2816
:103D100011D06FF02F033078A0F13002092A16D8A5
:103D2000059A44F0020402EB820203EB42021044C3
:103D3000761C0590EFE759F8042B0592002A03DA68
:103D4000504244F40054059044F00204761C30784C
:103D50002E2816D116F8010F44F004042A280DD09D
:103D60006FF02F023078A0F13003092B09D807EB50
:103D7000870302EB4303C718761CF3E759F8047B6B
:103D8000761C30786C280FD006DC4C2817D06828B9
:103D90000DD06A2814D104E0742810D07A280FD1ED
:103DA0000DE044F400140AE044F4801401E044F40B
:103DB00040147278824202D104F58014761C761C7D
:103DC000307866280BD013DC582877D009DC00281F
:103DD00075D04528F6D04628F4D047281AD19DE161
:103DE00018E0632835D0642879D0652812D195E190
:103DF000702873D008DC6728F1D069286FD06E284E
:103E00000DD06F2806D1B5E073282CD0752875D059
:103E1000782874D05A46179990476D1C75E1C4F301
:103E20000250022809D003280DD0D9F80010042828
:103E30000DD00D6009F1040967E1D9F80010EA1707
:103E4000C1E90052F6E7D9F800100D80F2E70D70D5
:103E5000F0E719F8041B8DF8001000208DF8010020
:103E6000EA46012003E059F804AB4FF0FF30610748
:103E70004FF0000102D40DE008F101018846B9427B
:103E80000FDA8045F8DB1AF808100029F4D108E0B1
:103E900008F1010188468142FADB1AF8081000296E
:103EA000F6D105985B46A0EB080721463846179ADD
:103EB00000F094FA284400EB080507E04DE029E102
:103EC0000DE01AF8010B5A4617999047B8F101080E
:103ED000F7D25B4621463846179A13E142E00A22A0
:103EE0000092C4F302524FF0000A022A08D059F897
:103EF00004CB032A4FEAEC710AD00DE029E02AE056
:103F000009F1070121F00702F2E802C1914609E038
:103F10000FFA8CFC4FEAEC71042A03D14FFA8CFCA7
:103F20004FEAEC71002907DA0A460021DCF1000CA7
:103F300061EB02012D2202E0220504D52B228DF82F
:103F40000420012203E0E20701D02022F7E7904697
:103F500059E00A2102E010220DE010214FF0000A82
:103F600000910BE010224FF0000A44F004040827EF
:103F7000009203E008224FF0000A0092C4F30252BC
:103F8000022A05D059F804CB0021032A08D009E001
:103F900009F1070121F00702F2E802C1914605E0AC
:103FA0001FFA8CFC042A01D10CF0FF0C4FF0000822
:103FB000220728D5702806D0009B83F0100353EA0F
:103FC0000A0305D00EE040228DF80420012208E00B
:103FD0005CEA010206D030228DF804208DF805003D
:103FE00002229046009B83F0080353EA0A030AD199
:103FF0005CEA010201D1620705D530228DF8042068
:104000004FF001087F1E582804D034A003900EA85A
:1040100002900DE036A0F9E753466046009AFCF79F
:10402000D7F884460398825C0298401E0290027082
:104030005CEA0100F0D1029806A9081A00F1200AF2
:10404000600702D524F4803400E00127574502DDE3
:10405000A7EB0A0000E0002000EB0A0100900598A1
:104060004144401A0590E00306D45B462146179A66
:10407000059800F0B3F90544002706E001A85A4668
:10408000C05D179990476D1C7F1C4745F6DBE00328
:104090000CD55B462146179A059800F09FF9054418
:1040A00004E030205A46179990476D1C0099481E2D
:1040B00000900029F5DC08E0029802995A46007841
:1040C000491C0291179990476D1CBAF10001AAF1A1
:1040D000010AF1DC65E100000928010030313233CA
:1040E0003435363738396162636465660000000034
:1040F000303132333435363738394142434445461E
:104100000000000000F058F90544761C30780028C3
:104110007FF4ECAD19B02846BDE8F08F620700D4FB
:10412000062709F1070222F0070CFCE80223E1460A
:1041300003F000485FEA080C02D00FF2702C0DE08B
:104140005FEA045C02D50FF2682C07E05FEAC47CEA
:1041500002D00FF2602C01E0AFF2700C4FF0FF388C
:1041600023F00043CDF850C065280CD006DC45286C
:1041700009D046281DD047283DD13DE0662818D0FB
:1041800067287ED138E00021112F01DB112000E0EB
:10419000781CCDE9000106A90EA8FFF7DDFCDDE9DA
:1041A0000F010E9A03910021009207F1010A049178
:1041B0004DE04FF000400097CDE9011006A90EA890
:1041C000FFF7CAFCDDE90F0203920E9B1199002252
:1041D000DDF80CA00093049211B9791C00EB010AE0
:1041E000B7EB0A0004D4C0F1FF3007F1010A0490D4
:1041F000AAEB0700019044E0012F00DA012700211B
:10420000112F01DD112000E03846CDE9000106A99B
:104210000EA8FFF7A1FCDDE90F010E9A0391002122
:1042200004910092BA4621070CD40399514500DA53
:104230008A46BAF1010F05DD009AAAF10101515C2D
:10424000302908D0B84202DA10F1040F06DA012151
:10425000CDE9011015E0AAF10101E9E7002805DC2C
:10426000049901440491AAEB000102E0411C51456C
:1042700000DD8A460499401A401C01904FF000402E
:104280000290200704D40198504501DBCDF804804A
:1042900000208DF84F0002980DF14F07B0F1004F4C
:1042A00025D02B200E9002984FF0020800280CDA3F
:1042B000404202902D200E9007E00A210298FCF760
:1042C00092F93031029007F8011DB8F10001A8F110
:1042D0000108F2DC02980028EFD1791E0E980870D0
:1042E000307800F0200040F0450007F8020D12A8D9
:1042F000C01B00F107081498007800B1012000EB02
:104300000A01019801EBE07105984144401A401EF2
:104310000590E00306D45B462146179A059800F005
:104320005DF805441498007818B15A4617999047DB
:104330006D1CE00324D55B462146179A059800F0D2
:104340004DF805441CE00498002807DBDDE9030173
:10435000884203DD0098405C179901E017993020EE
:104360005A469047049805F10105401C04900198B5
:10437000401E019004D12E205A46179990476D1C7B
:10438000BAF10001AAF1010ADDDC05E017F8010B22
:104390005A46179990476D1CB8F10001A8F1010821
:1043A000F4DC5B462146179A0598ABE62D00000029
:1043B0002B000000200000002DE9F04104460025FC
:1043C0001E461746880404D405E039462020B0472D
:1043D0006D1C641EF9D52846BDE8F0812DE9F04139
:1043E000044600251E469046C80301D5302700E04C
:1043F0002027880404D505E041463846B0476D1CA7
:10440000641EF9D52846BDE8F08130EE201AD0EDC3
:10441000001AF4EEC11AF1EE10FA02DCB0EE611AE5
:1044200001E080ED001A30EEC00AB4EEC01AF1EEE1
:1044300010FA01D280ED000A7047000010B500228A
:1044400010210F48FDF778FA0E484178002941887D
:1044500005D00A390904090C418007D007E00A3168
:1044600089B24180B1F57A7F01D3012141700649BB
:1044700040880860BDE810400120FDF7B1B8000099
:10448000000002402C0000203C04004000B587B032
:10449000FDF74CF9002005900090022004900720C1
:1044A00002900120039005A96846FDF7ABF8FDF7DF
:1044B000F5F807B000BD000013B54FF6FF730122F9
:1044C00069460248FEF793FB00981CBDE8010020F6
:1044D00088B0FDF745FAFEF713FEFEF73BFCFEF74A
:1044E000A9FCFEF783FCFEF7E5FCFCF78DFDFCF76D
:1044F00069FBFCF721FD3048FDF746FFFCF790FD16
:104500002E48022101703AE02C4C2078022836D047
:1045100001284CD00328F7D1FFF790FFFCF7AAFC45
:1045200027480068FCF730F8824626488B4600682A
:10453000FCF72AF8804689462348FCF7A3FE10EED4
:10454000100AFCF721F806460F462048FCF79AFEB1
:1045500010EE100AFCF718F804460D461C48FCF74C
:1045600091FE10EE100AFCF70FF88DE8F00F41EC09
:10457000100B18A053EC102BFFF780F8C4E700F0E5
:1045800033F9FCF777FC0E480068FBF7FDFF0446A3
:104590000C480D460068FBF7F7FF41EC100B11A02B
:1045A00053EC102BCDE90045FFF768F8ACE7FCF7BA
:1045B00037F903202070A7E7100100202000002019
:1045C0001000002014000020A89806089C88060807
:1045D0009078060825662C25662C25662C25662CE9
:1045E00025660A0025662C25660A0000B0EE601AD2
:1045F000F0EE401A00B571EE610AC0ED081A80EDC8
:10460000051AC0ED0B0A90ED152A01469FED700AC0
:1046100031EE611AB5EEC02AB1EE411AF1EE10FA90
:104620000ED0F5EEC00AF1EE10FA02DDF0EE601ADF
:1046300001E0F0EE411AF4EEC21AF1EE10FA7DDC60
:10464000D1ED161AF5EEC01AF1EE10FA0BD0F5EE18
:10465000C00AF1EE10FA01DDB0EE601AB4EEE11A14
:10466000F1EE10FA6AD3CA6D01F1380012B1012AD5
:1046700041D08CE091ED001AB0EE402A21EE201AD4
:1046800081ED0D1A91ED0E1AD1ED011A01EEA01A6D
:1046900081ED0E1A91ED0A1A70EEC10AC1ED0C0AF5
:1046A00091ED021A60EE810AC1ED0F0AD1ED190AEF
:1046B000B8EE601AF0EE420AB0EE410AFFF7A5FE2E
:1046C00091ED0D0AD1ED0E0A01F1400030EE200A05
:1046D000D1ED0F0A30EE200AF0EE420A81ED100A09
:1046E00091ED180AB8EE400AFFF78FFE91ED100A1F
:1046F00081ED110A4BE091ED0A1A91ED002A70EE5E
:10470000C11A61EE821AC1ED0D1AD1ED011A61EEE6
:10471000A01AC1ED0E1AF0EE001A41EE610A91EDF9
:10472000091A70EE810A91ED021A60EE810AC1ED5C
:104730000F0AD1ED190AB8EE601A00E043E0B0EEBE
:10474000402AB0EE410AF0EE420AFFF75EFE91ED1C
:104750000D0AD1ED0E0A01F14C0030EE200AD1ED28
:104760000F0A30EE200A81ED120AD1ED140A30EE64
:10477000800AF0EE420A81ED130A91ED180AB8EEB4
:10478000400AFFF742FE91ED130A81ED140A91ED04
:104790000A0A81ED090A91ED0B0A81ED0A0A91EDF1
:1047A000070A81ED060A91ED080A81ED070A91EDED
:1047B000040A81ED030A91ED050A81ED040AC86D32
:1047C00010B191ED130A00BD91ED100A00BD00007B
:1047D0000000000000F15C0C8CE80E0080EC030A85
:1047E000704780EC030A70472D4810B590ED000A21
:1047F0002C482E4B0122D0ED000A2B482C4930EEDC
:10480000600A2C4CB0EEC00A80ED000A10EE100ACF
:10481000984227DD0220087022499FED270AF2EE18
:10482000040A91ED001A1E4963782448D1ED001A5C
:10483000214631EEC11A4988B0EEC11A31EE400A64
:1048400080EE801A00EE101AB8EE400A63B130EE26
:10485000410ABCEEC00A10EE101A0904090C61806E
:1048600010D011E00A7013E031EE000ABCEEC00A6D
:1048700010EE101A89B26180B1F57A7F00D36270B0
:10488000012202E00021617000221021FDF754F89E
:104890000B4960880860BDE810400120FCF7A0BE0D
:1048A00014000020100000201C000020CDCC4C3E45
:1048B000200000202C000020CDCC4C3E0000024007
:1048C0003C0400400000000000000000010203045E
:1048D0000607080900000000010203040006101684
:1048E0000006101640AA41000F0010031500180022
:1048F000000000006E83F9A22915444ED15727FC11
:10490000C0DD34F5999562DB4190433CAB6351FEC9
:104910003049000800000020500000002C3B000837
:104920008049000850000020881500003C3B00082A
:104930000024F4000100000010000000000000004E
:104940000000F8410000000000000000000000002E
:104950000000000000000000000000000000000057
:104960000000803FB285203FF4BF94BE17A0B53E43
:10497000B285203F17A0B53E0000000000000000F7
:040000050800019955
:00000001FF
