:020000040800F2
:10000000F03F0020AD010008574D000839360008C8
:10001000554D0008B9160008795800080000000086
:10002000000000000000000000000000B94E0008C1
:10003000D919000800000000714D00081551000892
:10004000C7010008C7010008C7010008C701000870
:10005000C7010008C7010008C7010008C701000860
:10006000C7010008C7010008C7010008C701000850
:10007000C7010008C7010008C7010008C701000840
:100080000D18000819180008C7010008000000003A
:10009000000000000000000000000000C701000890
:1000A000C7010008B9510008C7010008C7010008CE
:1000B000C7010008C7010008C7010008C701000800
:1000C000C7010008C7010008C7010008C7010008F0
:1000D000C7010008555800086158000800000000DA
:1000E000C7010008C7010008C701000800000000A0
:1000F000000000000000000000000000C701000830
:1001000000000000C7010008C7010008C70100087F
:1001100000000000000000000000000000000000DF
:10012000C7010008C701000825180008C70100081A
:10013000C7010008000000000000000000000000EF
:10014000000000000000000000000000C7010008DF
:10015000C7010008C7010008311800086D580008E1
:10016000C7010008C70100080000000000000000EF
:10017000000000000000000000000000000000007F
:1001800000000000C701000800000000000000009F
:10019000C7010008C7010008DFF80CD000F090FF8D
:1001A0000048004729620008F03F002006488047C9
:1001B00006480047FEE7FEE7FEE7FEE7FEE7FEE74C
:1001C000FEE7FEE7FEE7FEE7A951000899010008F7
:1001D00070B405880E884468D1F804C05368B542ED
:1001E00008D140884988884201BF11888D425188D2
:1001F000884203D070BC6FF00200704705FB00F12D
:10020000880827D094ED001ADCED000A94ED010A6D
:10021000DCED011A31EE201AD4ED020A70EE211A3B
:100220009CED020A83ED001AC3ED011A94ED031A46
:10023000DCED031A30EE800A401E71EE210A83EDD8
:10024000020A04F11004C3ED030A03F110030CF1D8
:10025000100CD7D111F0030030D0B0F1004F30D2E4
:1002600000282BDD211F1B1FACF1040210F0010F31
:100270000AD091ED010AD2ED010A091D121D30EEDE
:10028000200A83ED010A1B1D400817D091ED010AD9
:10029000D2ED010A401E30EE200A83ED010A91EDF5
:1002A000020AD2ED020A01F1080102F1080230EE61
:1002B000200A83ED020A03F10803E7D170BC002095
:1002C0007047B4EC010A401EFCEC010A30EE200A33
:1002D000A3EC010AF5D1F1E7018042804360704749
:1002E0002DE9F34F84B0049840680090486801906D
:1002F0000498B0F800E04588DFEDFE0A0020029087
:10030000B0EE600AAE4506D108884988884204BF2D
:100310007146864504D06FF0020006B0BDE8F08F4C
:1003200001985FEA010C18BFB7EE001A3DD000BF7C
:10033000BEEB0C0117D0B1F1004F80F01F820029F5
:1003400011DD021F11F0010F1CBFC2ED010A121DC9
:100350004B1006D0C2ED010AC2ED020A08325B1E44
:10036000F8D100EB8100BCF10102A0EC011A19D018
:10037000B2F1004F80F00882002A13DD031F12F053
:10038000010F1CBFC3ED010A1B1D511008D000BF97
:10039000C3ED010AC3ED020A491E03F10803F7D1B8
:1003A00000EB8200BCF1010CC2D14FF000080395B4
:1003B000002D14BFB0EE602A002000F0BF8100BF06
:1003C000009908FB05F001EB800B0199DBED002A99
:1003D00001EB80000346F0EE421AC64552D9AEEB5F
:1003E0000802ABEB850112F0010F17D001EB85017C
:1003F00091ED000AB5EEC00AF1EE10FA07DDB4EE99
:10040000E10AF1EE10FA09DDF0EE401A06E0B1EE75
:10041000400AF4EEC01AF1EE10FAF5D3521031D0C2
:1004200001EB850C9CED000AB5EEC00AF1EE10FA66
:1004300005DDB4EEE10AF1EE10FA09DD06E0B1EEF9
:10044000400AF4EEC01AF1EE10FA01D2F0EE401AB2
:1004500001EBC50191ED000AB5EEC00AF1EE10FA0C
:1004600005DDB4EEE10AF1EE10FA09DD06E0B1EEC9
:10047000400AF4EEC01AF1EE10FA01D2F0EE401A82
:10048000521ECDD1F5EEC01AF1EE10FA00F07381D4
:10049000F5EEC02A0126F1EE10FA0099D4BFB1EEB4
:1004A000620AB0EE620AB4EE610AF1EE10FA1CBF05
:1004B000AEEB0802B2F1010C47D005FB08F201EBEC
:1004C000820292ED001A00BFB0EE410A05FB06F46D
:1004D000B5EEC00A00EB8404F1EE10FACCBFF0EEEA
:1004E000400AF1EE400AF4EE610AF1EE10FA28D16A
:1004F000B5EB080C11D0BCF1004F7DD2BCF1000F60
:100500000BDD00BF92ED000AD1ED000ABCF1010C39
:10051000E2EC010AA1EC010AF4D129000ED0B1F1FC
:10052000004F6AD2002909DD94ED000AD0ED000ADF
:10053000491EE4EC010AA0EC010AF5D10120029069
:100540000BE0761CBCF1010CBED10298012804D04E
:10055000F5EEC02AF1EE10FA7ED09BED000AB5EB65
:1005600008009A465946064622D0B0F1004F74D290
:1005700000281DDD091F10F0010F06D0F0EE400A23
:1005800080EEA01A81ED011A091D401010D000BFA5
:10059000D1ED010A401E80EE801A81ED011A91ED25
:1005A000021AC1EE000AC1ED020A01F10801EFD101
:1005B000280026D0B0F1004F7ED2002821DDAAF11C
:1005C000040110F0010F06D0D1ED010A80EE801A6F
:1005D00081ED011A091D401013D000BFD1ED010AB1
:1005E000401E80EE801A81ED011AD1ED020A80EEE4
:1005F000801A81ED021A01E0CBE0D6E001F108019A
:10060000ECD1DDE900124FF000095FEA0E0773D06C
:10061000C14504BF01EB860102EB850274D091ED68
:10062000000ADC465046331E35D01C46B6F1004F5A
:100630007ED2002C2FDD0B1FABF1040C16F0010F46
:100640000FD0F0EE400ADCED011AB0EE601A00EEB9
:10065000E11A83ED011A01E08DE0B1E01B1D0CF100
:10066000040C741015D000BFD3ED010A9CED011AE3
:1006700040EE410AC3ED010AD3ED020A9CED021AD5
:100680000CF1080C40EE410AC3ED020A0833641E67
:10069000EAD101EB86012B0036D0B3F1004F72D2C4
:1006A000002B31DDA2F1040CAAF1040013F0010FBC
:1006B0000CD0DCED010A00E08BE090ED011A001D8A
:1006C00040EE410ACCED010A0CF1040C5C1019D08B
:1006D000DCED010A90ED011A40EE410ACCED010A71
:1006E000DCED020A90ED021A083040EE410ACCED32
:1006F000020A03E0000000000DE005E0641E0CF1BA
:10070000080CE5D102EB830201EB88017F1E09F1A1
:1007100001097FF47DAF009808F10108001D0090E9
:100720000398401E03907FF44BAE0299012900E02C
:1007300058E004BF06B0BDE8F08F00BFB5EEC00AB8
:10074000F1EE10FA7FF4E9AD04990EFB05F3002BEE
:100750004A684FF000010BD902EB810C9CED000AB6
:10076000B5EEC00AF1EE10FA02D1491C8B42F3D863
:100770008B427FF4D2AD6FF00400CEE5E0EC010ACD
:10078000491EFBD1EFE538E0E0EC010A521EFBD137
:1007900008E692ED000AD1ED000ABCF1010CE2EC92
:1007A000010AA1EC010AF4D1B7E694ED000AD0EDFC
:1007B000000A491EE4EC010AA0EC010AF5D1BDE6ED
:1007C000D1ED000A401E80EE801AA1EC011AF7D18B
:1007D000EEE6D3ED000A401E80EE801AA3EC011A6B
:1007E000F7D10EE7BCEC011AD1ED000A5B1E40EE1A
:1007F000410AE1EC010AF5D14DE7B0EC011AD2ED66
:10080000000A5B1E40EE410AE2EC010AF5D17BE7EB
:100810002DE9F04F82B046685368019305884788F8
:100820004B88002000900888874201BFB2F800C0C2
:100830006545528893421EBF6FF0020002B0BDE8CA
:10084000F08F9FED412A4FEA970EC7F3400B00BF90
:10085000DDE9000202EB800A4A6898464FF0000981
:10086000B0EE420AB4465FEA0E0025D092ED001ABF
:10087000DCED001A02EB8302DCED010A01EE810AD5
:1008800092ED001A02EB8302401ED2ED001A02EB39
:10089000830200EE810A9CED021ADCED030A0004DB
:1008A0000CF1100C000C01EE210A92ED001A02EB83
:1008B000830200EE810AD9D117F0030026D0ACF1F3
:1008C0000404A2EB830210F0010F08D002EB8302B4
:1008D000D4ED010A92ED001A241D00EE810A5FEAB0
:1008E0000B0013D002EB830CD4ED010A9CED001A2F
:1008F00002EBC302401E00EE810AD4ED020A92ED23
:10090000001A04F1080400EE810AEBD109F101009C
:10091000AAEC010A1FFA80F9486800EB8902A8F1E5
:1009200001001FFA80F8B8F1000F99D1009806EB8A
:100930008706184480B20090681E05042D0C87D1EC
:1009400002B00020BDE8F08F0000000070B4058800
:100950000E884468D1F804C05368B54208D1408875
:100960004988884201BF11888D425188884203D04E
:1009700070BC6FF00200704705FB00F1880827D0BB
:1009800094ED001ADCED000A94ED010ADCED011A89
:1009900031EE601AD4ED020A70EE611A9CED020A83
:1009A00083ED001AC3ED011A94ED031ADCED031A6E
:1009B00030EEC00A401E71EE610A83ED020A04F1B6
:1009C0001004C3ED030A03F110030CF1100CD7D18E
:1009D00011F0030030D0B0F1004F30D200282BDDF1
:1009E000211F1B1FACF1040210F0010F0AD091ED82
:1009F000010AD2ED010A091D121D30EE600A83EDD5
:100A0000010A1B1D400817D091ED010AD2ED010A21
:100A1000401E30EE600A83ED010A91ED020AD2ED2C
:100A2000020A01F1080102F1080230EE600A83EDCA
:100A3000020A03F10803E7D170BC00207047B4EC50
:100A4000010A401EFCEC010A30EE600AA3EC010A28
:100A5000F5D1F1E72DE9F04F02884768B0F8028040
:100A60004888D1F8049082B04FF0000A16468242BE
:100A700007BF098888456FF0020002B018BFBDE8C3
:100A8000F08F4FEA980B02EB42000190C8F3400050
:100A9000CDF8000009EB8A01BBF1000F33D00198BB
:100AA00001EB820C01EB80043B46E64601EBC205FC
:100AB0004FEA0B0093ED000A401E81ED000A93ED12
:100AC000010A01EB02118CED000A93ED020A0CEB16
:100AD000021C85ED000A93ED030A05EB021584ED77
:100AE000000A04EB021403F11003E3D10EEB8200C1
:100AF00000EB820000EB8201ABF10100504307EBF9
:100B00000B1701EB001118F0030C21D03B1FA1EBD8
:100B100082011CF0010F06D093ED010A01EB820166
:100B20001B1D81ED000A009880B100BF93ED010A02
:100B300001EB820401EBC20184ED000A93ED020A8D
:100B4000401E81ED000A03F10803EFD107EB8C078B
:100B50000AF101001FFA80FA701E0604360C99D1C2
:100B600002B00020BDE8F08F2DE9F05F05460020BF
:100B700092469B4688460646814640241BE028460E
:100B800041464746224600F0E4F953465A46C01A09
:100B9000914110D311461846224600F0CBF92D1A88
:100BA00067EB01084F4622460120002100F0C2F900
:100BB00017EB00094E41201EA4F10104DFDC48467A
:100BC00031462A464346BDE8F09F40EA01039B07B1
:100BD00003D009E008C9121F08C0042AFAD203E0B2
:100BE00011F8013B00F8013B521EF9D27047D2B216
:100BF00001E000F8012B491EFBD270470022F6E706
:100C000010B513460A4604461946FFF7F0FF204682
:100C100010BD2DE9FE4F804681EA0300C00F0C464F
:100C2000009021F0004123F00045B8EB0200A941FB
:100C300005D24046214690461C460B46024623F00C
:100C40000040104347D0270DC7F30A00C3F30A51F1
:100C50000290401A019040286BDAC3F3130040F46D
:100C6000801B0098924620B10023D2EB030A63EB6D
:100C70000B0B01985946C0F14002504600F05AF95A
:100C800006460D4650465946019A00F072F910EB9F
:100C900008006141002487EA115284EAE7731A438D
:100CA00040D0009A62B3019A012A4FEA075215DC3C
:100CB000001B61EB02014FF0004202EA0752CDE94E
:100CC0000042001C41F5801132462B4600F0A9F984
:100CD00003B0BDE8F08F40462146F9E7001B61EB09
:100CE0000201001C41F5801300185B412018A2F599
:100CF000001747EB030140EAD570B6196D4111E0CA
:100D00006D084FEA360645EAC0754FEA0752001BE8
:100D100061EB0201001C41F5801149084FEA3000E7
:100D20000019514132462B4603B0BDE8F04F00F0A8
:100D300069B90098012240000023D0EB020263EB66
:100D4000E073009821464FEAE074B8EB000061EBD5
:100D50000401E9E783F000435BE781F0004158E7D5
:100D60002DE9FE4F81EA030404F0004421F0004124
:100D700000944FF0000B23F0004350EA01045ED0D2
:100D800052EA03045BD0C3F30A54C1F30A552C445E
:100D9000A4F2F3340194A0FB0254C1F3130141F413
:100DA0008011C3F3130343F4801301FB024400FBDF
:100DB000034E840A970A44EA815447EA8357A4FB06
:100DC000076802958D0A05FB07854FEA932C04FB03
:100DD0000C542705029D4FEA065847EA1637B5EB33
:100DE00008056EEB070C870E920E47EA811742EA60
:100DF0008312A7FB0201B6EB0B0164EB00042B0D81
:100E000043EA0C335E1844EB1C50DA465146E7FBCC
:100E10000201C5F313044FEA0B3343EA14534FEABC
:100E20000432019C43EA0603A4F10C040294009CE2
:100E3000CDE900B400F0F5F803B0BDE8F08F002074
:100E40000146F9E70EB5C10F80EAE0700844CA0711
:100E5000002140F233438DE80E000A460B4600F0B5
:100E6000E0F803B000BD70B5C1F30A5201F00045CF
:100E70000024C1F3130140F2FF3341F480119A4280
:100E800001DA002070BD40F233439A42A2F23342AD
:100E900003DC524200F05DF800E090402C43F1D0BA
:100EA000404270BD00F0004230F000400AD0C10D59
:100EB00001F56071C0F3160042EA0151C208400713
:100EC00011437047002001467047000030B5041EF2
:100ED00071F1000404DB4FF00044404264EB010177
:100EE000141E73F1000405DB1C464FF00043524210
:100EF00063EB0403994208BF904230BD01F0004308
:100F000030B421F0004150EA010206D00A0DA2F5EA
:100F10006072C1F31301002A02DC30BC002070476C
:100F2000440F44EAC104C100E01830BC00EBC250D9
:100F300000F031B8202A04DB203A00FA02F1002048
:100F400070479140C2F1200320FA03F31943904007
:100F50007047202A04DB203A21FA02F00021704772
:100F600021FA02F3D040C2F1200291400843194611
:100F70007047202A06DBCB17203A41FA02F043EAF9
:100F8000E07306E041FA02F3D040C2F12002914042
:100F90000843194670470029A8BF7047401C490004
:100FA00008BF20F00100704710B4B0FA80FC00FACE
:100FB0000CF050EA010404BF10BC704749B1CCF1F9
:100FC000200421FA04F411FA0CF118BF0121214385
:100FD0000843A3EB0C01CB1D4FEA00614FEA102040
:100FE00042BF002010BC704700EBC35010440029E2
:100FF000A4BF10BC7047401C490008BF20F001008E
:1010000010BC704710B5141E73F1000408DA401CC0
:1010100041F1000192185B411A4301D120F0010017
:1010200010BD2DE9F04D92469B4611B1B1FA81F207
:1010300002E0B0FA80F220329046FFF77BFF0446D0
:101040000F4640EA0A0041EA0B0153465A4608435C
:1010500013D0114653EA010019D0C8F1400250469E
:10106000FFF777FF05460E46504659464246FFF7C2
:1010700061FF084305D0012004E020463946BDE861
:10108000F08D0020054346EAE0762C4337430A986A
:101090006305E40AA0EB08000022FD0A44EA475475
:1010A0000A3002D500200146E9E70105101969411F
:1010B000DDE9084500196941BDE8F04DA2E70000EF
:1010C000064C074D06E0E06840F0010394E8070095
:1010D00098471034AC42F6D3FFF762F81068000866
:1010E0003068000870B58C1810F8015B15F0070324
:1010F00001D110F8013B2A1106D110F8012B03E0B1
:1011000010F8016B01F8016B5B1EF9D12B0705D4B8
:101110000023521E0DD401F8013BFAE710F8013B01
:10112000CB1A921C03E013F8015B01F8015B521E1D
:10113000F9D5A142D8D3002070BD0000094801684C
:101140000948016009490968416009490968C160A5
:101150000849096801610849096841610749096846
:101160008161704790780608F80900209C8806087D
:10117000A898060890A806089CB80608A8C80608FB
:101180005D4A10B5B2F900005C4900EE100A5C48F7
:10119000B8EEC00A03F022FC594C5849E43484EDFF
:1011A000000AB2F9020000EE100AA4F1CC00B8EE79
:1011B000C00A03F013FC84ED010AB2F904004F49A0
:1011C00000EE100AA4F1B400B8EEC00A03F006FC69
:1011D00084ED020AA4F5AE7194ED000A01F130002D
:1011E00003F0FCFBA4F13003A3F5967183ED000A34
:1011F00094ED010A01F1480003F0F0FB83ED010AD0
:10120000A4F5AE7194ED020A01F1600003F0E6FB73
:101210003C4883ED020AD0ED000A3B4890ED001AED
:101220003A4870EEC10AB0EEE01A11EE101AB1F1B0
:10123000804F0CDD90ED031ADFED351A60EEA10A48
:10124000DFED341A00EEA11A80ED021A03E0D0EDB2
:10125000030AC0ED020AD0ED030A2F4CC0ED020ACA
:1012600093ED001AD0ED001A30EE600A244931EEF9
:10127000611A603984ED001A93ED011AD0ED011A5C
:1012800031EE611A84ED011A84ED020AB2F906000A
:1012900000EE100A01F1A800B8EEC00A03F09EFBB0
:1012A000174BC433A3F5927183ED000AB2F908001D
:1012B00000EE100A01F1C000B8EEC00A03F08EFB88
:1012C00083ED010AB2F90A000D4900EE100A6039F7
:1012D00001F1D800B8EEC00A03F080FB83ED020AEA
:1012E000D3ED000AC4ED040AD3ED010AC4ED050AEA
:1012F00084ED060A10BD0000FC060020EC00002072
:10130000E00A00201400002010000020F80900204E
:101310008FC2753C6F128341880900202DE9FE437E
:10132000DFF8F8803E4D4FF480760122314640468A
:1013300000F024FE012000F01FFD04227D21012089
:1013400000F0B0F8372000F017FD00227C210120CA
:1013500000F0A8F8D5E90101CDE900012868029064
:10136000372000F009FD0021084600F069F80F2839
:1013700002D00220BDE8FE8300246F4607EB440044
:1013800017F814104278002000F08CF8012000F0CB
:10139000F3FC641CE4B2042CF0D30021012000F023
:1013A0004FF81E2801D00320E4E700240DF10807C0
:1013B00007EB440017F814104278012000F072F88F
:1013C000012000F0D9FC641CE4B2022CF0D30C2103
:1013D000144801F063FD40F2E732B3EE021ADFED8C
:1013E000120A9FED120A13460021114803F0B4FCC3
:1013F0001048D0ED000A90ED010A0D4804F09AFF64
:10140000BCEEC00A0C4910EE100A086000F070F83B
:101410000A48C088002888D00120ABE700040240B9
:1014200054670008140400200000204200003443E8
:101430000C0D00201000002040040040FC0600209D
:101440002DE9F041164E41F08004FF2710B101282C
:1014500022D10CE04FF4007800224146304600F0E3
:101460008DFD47EA042003F0BBFCC5B20FE04FF44A
:10147000807800224146304600F080FD47EA042093
:1014800003F0AEFC4FF6FF7003F0AAFC050A012240
:101490004146304600F072FD2846BDE8F08100006C
:1014A000000402402DE9F0471546DFF840800400B3
:1014B00001F07F064FF400774FF480794FF000027F
:1014C00010D04946404600F059FD45EA062003F099
:1014D00087FC4FF001023CB149464046BDE8F04769
:1014E00000F04CBD3946EDE73946F6E7000402400E
:1014F0002DE9FF41334E4FF400780022414630463B
:1015000000F03CFD48F2FF2003F06AFCADF800005B
:1015100001246F464FF6FF75284603F061FC27F85B
:101520001400641CE4B2042CF6D301224146304678
:1015300000F024FD4FF4807800224146304600F050
:101540001DFD49F2FF2003F04BFC002402AF2846AA
:1015500003F046FC27F81400641CE4B2032CF6D315
:1015600001224146304600F009FDBDF80220BDF8D9
:101570000030154802F47F41DBB219430180BDF809
:101580000410D2B201F47F4313434380BDF8062018
:10159000C9B202F47F420A438280BDF808100A02F1
:1015A00042EA1121C180BDF80A100A0242EA112163
:1015B0000181BDF80C100A0242EA11214181BDE807
:1015C000FF81000000040240FC06002070B5304E90
:1015D0004FF4807500222946304600F0CFFC4AF2D5
:1015E000FF2003F0FDFB4FF6FF7003F0F9FB04460C
:1015F00001222946304600F0C1FC200AC4F3421102
:1016000001EBC000B0F5806F01D3A0F50060FFF7DB
:1016100019FC9FED201B53EC112BFFF7A1FB9FED55
:101620001F1B53EC112BFFF7F4FAFFF767FC1D4C5F
:1016300000EE100A1C4884ED010AD4ED000A04F003
:1016400079FEB5EEC00A84ED020AF1EE10FA03D27B
:101650009FED160A84ED020A1549BCEEC00A09681E
:1016600010EE100A086494ED010AD4ED000A114945
:1016700030EE600AB0EEC00A10EE100A84ED030AE4
:10168000B0F1804F01DD022000E00120087070BD44
:1016900000040240000000000000C03F0000000005
:1016A00000003740100000200C0D0020000000005A
:1016B00014040020D8000020FEE7000010B50B48FD
:1016C000DFED0B0A2DED028B9FED0A8AB0EE480A82
:1016D00003F0CCFCB0EE480ABDEC028BF3EE0E0A30
:1016E0000248BDE81040183003F0C0BC680A002072
:1016F0000000484200007A449FED0A1A80ED001A6B
:1017000080ED051A80ED090AC0ED0A0AB7EE000A5D
:1017100080ED070A80ED081A80ED0B0A80ED011AB2
:1017200070470000000000002DE9F0410C4605461E
:1017300001F10C03012202210C30FEF7CDFD04F172
:1017400014030122022105F11400FEF7C5FD04F186
:101750001C030122022105F11C00FEF7BDFD02223F
:1017600005F1240004F1740311460746FEF7B4FDA9
:10177000022205F12C0004F1840311468046FEF795
:10178000ABFD022204F19403114605F14400FEF77B
:10179000A3FD022204F1A403114605F14C00FEF75B
:1017A0009BFD022204F14403114605F15400FEF7AB
:1017B00093FD022204F12403114605F15C00FEF7BB
:1017C0008BFD022204F13403114605F16400FEF79B
:1017D00083FD022205F1340004F15403114606464C
:1017E000FEF77AFD31463846FFF734F904F1640319
:1017F000022205F13C0011460446FEF76DFD21462C
:101800004046BDE8F041FFF725B90000014800F06F
:1018100041B900009C060020014800F03BB90000DF
:101820003C060020014800F035B900007C0500208E
:10183000014800F02FB90000DC05002001681823E2
:10184000CAB2103AB2FBF3F2054B6FF30901032A57
:101850009B5CC36500D9091D81650846704700007F
:101860004C67000810B5014600208B698A6A4FF06A
:10187000C07453B1B3F5005F15D072B1012A0CD01A
:10188000022A0AD0032A09D104E01AB1012A06D09B
:10189000022A03D1C96AC90100D5012010BDC96A55
:1018A000A142FAD010BD002AF7D0012AF2D0022AB4
:1018B000F3D0032AF3D010BD30B50468256825F4B1
:1018C00080252560046863608368402B036803D02B
:1018D00099600068C26030BD9A600068C16030BD28
:1018E000074808B5406800900146064802699142E1
:1018F00002D2C168491CC1600099016108BD0000A5
:10190000001000E02000002000B50E492DED028BF4
:1019100081B0496800910168009A511A00EE101ACE
:101920000949F8EE400A91ED000A0260B8EE400A5B
:1019300080EE808AFFF7D4FF01B0B0EE480ABDEC1C
:10194000028B00BD001000E0200000200D490A6855
:1019500042F080720A600C4900224A600B6843F032
:1019600001030B6009494FF47A734843B0FBF3F36A
:101970000749C1E90003054BB0FBF3F0C1E90202DE
:1019800070470000FCED00E0001000E040420F0056
:101990002000002003490020012208701021024885
:1019A00000F0ECBAE80000200000024010B5002270
:1019B0001021064800F0E2FA054901200870BDE850
:1019C00010400821034801F069BA000000000240FD
:1019D000E800002014040020704772B6FEE72DE9ED
:1019E000F0410446876D00F0CFFA064694F83500C2
:1019F0000025022806D08020606584F8345001203C
:101A0000BDE8F0812068016821F0160101602068BE
:101A1000416921F080014161206C08B9A06C20B1BE
:101A20002068016821F0080101602068016821F048
:101A3000010101600CE000F0A7FA801B052807D91E
:101A400020206065032084F8350084F83450D7E7FF
:101A500020680068C007EED194F85C103F208840F1
:101A6000B860012084F8350084F834500020C7E7BE
:101A700090F83510022903D080214165012070477C
:101A8000052180F835100068016821F0010101602E
:101A9000002070472DE9F84304464FF00009CDF8C7
:101AA000009063484FF41651A56D0068B0FBF1F744
:101AB0002E6894F85C10082000FA01F131420FD032
:101AC00021680A6852070BD50A6822F004020A60EE
:101AD00094F85C108840A860606D40F0010060657B
:101AE00094F85C104FF0010808FA01F0304208D079
:101AF00021684969090604D5A860606D40F00200BC
:101B0000606594F85C1004208840304208D0216859
:101B10000968890704D5A860606D40F0040060651D
:101B200094F85C1010208840304218D02168096871
:101B3000090714D5A86020680168490304D5006826
:101B4000000308D5A16C07E00168C90503D401684A
:101B500021F008010160216C09B12046884794F802
:101B60005C1020208840304231D021680968C906C5
:101B70002DD5A86094F8350005282068016806D0A6
:101B8000490347D5006800031DD4616C1CE021F0B7
:101B9000160101602068416921F080014161206CDB
:101BA00008B9A06C20B12068016821F0080101602B
:101BB00094F85C103F208840A86084F8358084F851
:101BC0003490216D1FE0E16B09B120468847606DBC
:101BD00000282BD0606DC00714D0052084F8350094
:101BE0002068016821F0010101600098401C00900C
:101BF000B84203D820680068C007F6D184F8358061
:101C000084F83490E16C002910D001B02046BDE882
:101C1000F04308470168C905D5D4016821F01001D7
:101C2000016084F8358084F83490CCE7BDE8F8830F
:101C3000000000202DE9F041044600F0A5F9064619
:101C40005CB1022084F83500002584F83450206807
:101C5000016821F0010101600DE00120BDE8F08183
:101C600000F092F9801B052805D92020606503202B
:101C700084F83500F2E720680068C007F0D12268D8
:101C8000116820480140D4E901031843D4E9033620
:101C90003343184363691843A3691843E36918433E
:101CA000236A18430843616A042903D1D4E90B135A
:101CB00019430843106020684069666A20F00701F4
:101CC00030460E43012704280CD1A06A0643E06A7F
:101CD00040B12046FFF7C6FD20B14020606584F882
:101CE0003570BAE7206846612046FFF7A7FD94F8F3
:101CF0005C203F2191408160656584F8357000204B
:101D0000ACE700003F8010F02DE9F0410446866DFD
:101D100090F83400002501280DD0012084F834000B
:101D200094F835700020012F07D084F83400022584
:101D30002846BDE8F0810220FBE7022784F83570D1
:101D400060652046FFF7B8FD94F85C103F2088409E
:101D5000B0602068016841F016010160206C20B17C
:101D60002068016841F0080101602068016841F0C5
:101D700001010160DCE7000070B5044600F004F9E1
:101D80000546601C02D004480078044400F0FCF8CA
:101D9000401BA042FAD370BD040000202DE9F84F8B
:101DA000DFF8B8A10022012403254FF00F090AF142
:101DB000040BAAF1040E00BF0B6804FA02F63340CC
:101DC000B34273D10F7907F00307012F01D0022F1F
:101DD00016D187684FEA420805FA08FC27EA0C0783
:101DE000D1F80CC00CFA08FC4CEA070CC0F808C08B
:101DF0004768B7430E79C6F3001696403E434660E7
:101E00000E79F643B6070DD0C768560005FA06FCF2
:101E100027EA0C07D1F808C00CFA06FC4CEA070CBC
:101E2000C0F80CC00E7906F00306022E10D1D608B9
:101E300000EB8608D8F8206057074FEAD76C09FAFC
:101E40000CF7BE430F6907FA0CF73743C8F8207048
:101E500006684FEA420C05FA0CF7BE430F7907F00B
:101E6000030707FA0CF7374307604E6816F4403F44
:101E70006DD03B4E376847F480473760366822F0B4
:101E8000030706F480460096364E07EB060CDCF896
:101E9000086897073F0F09FA07F826EA0806DFF8EF
:101EA000C880404503D14FF000081EE04FE0DFF846
:101EB000BC80404502D14FF0010816E0DFF8B08049
:101EC000404502D14FF002080FE0DFF8A8804045FE
:101ED00002D14FF0030808E0DFF89C80404502D1B2
:101EE0004FF0040801E04FF0070808FA07F848EA45
:101EF0000608CCF80888DAF800605746D1F804C024
:101F00009E435FEACC2C00D51E433E60DBF80060A8
:101F10005F46D1F804C09E435FEA8C2C00D51E4377
:101F20003E60DEF800607746D1F804C09E435FEA69
:101F30008C3C00D51E433E60084F083F3E68D1F8F8
:101F400004C09E435FEACC3C00D51E433E60521C59
:101F5000102AFFF431AFBDE8F88F0000083C0140C3
:101F600044380240003001400000024000040240BA
:101F700000080240000C0240001002400AB18161DA
:101F800070470904FBE700000148806870470000C3
:101F90000400002002488168027811448160704783
:101FA000040000200B4810B5016841F40071016085
:101FB000016841F480610160016841F48071016051
:101FC000032000F06FF80F2000F006F800F024F86E
:101FD000002010BD003C024070B50D4D04464FF48A
:101FE0007A712878B1FBF0F00A490968B1FBF0F08A
:101FF00000F098FC48B9102C07D200222146501E50
:1020000000F030F800206C6070BD012070BD000051
:1020100004000020000000200A4808B5016841F4CF
:1020200080410160006800F4804000900548001F76
:10203000016841F080510160006800F0805000901C
:1020400008BD000044380240002809DB00F01F02F0
:10205000012191404009800000F1E020C0F800110A
:1020600070470000F0B40E4B1B680C46C3F302230C
:10207000C3F10705042D00D90425191D072901D234
:10208000002300E0DB1E012606FA05F1491E21406F
:1020900099409E40761E16403143F0BC03F000BCD0
:1020A0000CED00E0064900F0070208684FF6FF0358
:1020B000184040EA0220034A1043086070470000BD
:1020C0000CED00E00000FA052DE9F0470E46050092
:1020D00065D0DFF81481D8F80000F7B200F00700EF
:1020E000B04207D288F80070D8F8000000F007006E
:1020F000B04254D128683D4C810712D5400703D522
:10210000206840F4E05020602878000703D520685C
:1021100040F4604020602068A96820F0F000084387
:1021200020602878C0072DD0304968680839012818
:1021300012D0022813D0032811D00968890700297A
:102140002DDA216821F0030101432160FFF71CFF14
:10215000814641F2883A0EE009688903EFE7096891
:102160008901ECE7FFF710FFA0EB0901514502D907
:102170000320BDE8F0872068696800F00C00B0EB30
:10218000810FEFD1D8F80010404601F00701B142AD
:1021900007D90770006800F00700B04201D00120A5
:1021A000E7E72878400705D52068E96820F4E05083
:1021B000084320602878000706D52068296920F4A4
:1021C000604040EAC100206000F038F82168084A09
:1021D000C1F30311515CC840064908600648006815
:1021E000FFF7FAFE0020C4E7003C02400838024036
:1021F000346700080000002008000020044805495A
:1022000000680968044AC1F38221515CC8407047E4
:1022100000000020083802404467000804480549CF
:1022200000680968044AC1F34231515CC8407047F4
:10223000000000200838024044670008104810B52C
:10224000006810F00C010F4818D0042916D0082996
:1022500014D10B4C241F216801F03F022168216832
:102260000023C1F38811A1FB0001FEF77DFC21686A
:10227000C1F30141491C4900B0FBF1F010BD000061
:10228000083802400024F4002DE9F84F04006ED015
:102290002078DFF84C93C007A9F104054AD009F172
:1022A00004000168C1F38101012908D00068C0F36E
:1022B000810002280AD1D9F80000400206D528681A
:1022C000800337D560680028E1D033E06068B0F55E
:1022D000803F10D0B0F5A02F286810D020F48030B7
:1022E0002860286820F4802028606068A8B1FFF783
:1022F0004BFE06460DE0286840F48030F4E740F4D9
:1023000080202860F7E700BFFFF73EFE801B6428AF
:1023100073D828688003F7D50CE0FFF735FE064632
:1023200005E000BFFFF730FE801B6428F0D8286866
:102330008003F7D42078DFF8AC8280074FF0000AE2
:102340003ED5A748001D016811F00C0F08D00068A9
:10235000C0F3810002280BD1D9F80000400207D455
:102360002868800716D5E068012800D112E033E123
:10237000E068B8B10120C8F80000FFF705FE064686
:1023800005E000BFFFF700FE801B0228C0D82868C8
:102390008007F7D52868216920F0F80040EAC100DD
:1023A00028600DE0C8F800A0FFF7EEFD064604E047
:1023B000FFF7EAFD801B02281FD828688007F7D4A2
:1023C0002078000722D5864F87486169703771B140
:1023D00001210160FFF7D8FD064604E0FFF7D4FDB8
:1023E000801B022809D838688007F7D50EE0C0F8AE
:1023F00000A0FFF7C9FD064605E082E0FFF7C4FD37
:10240000801B02287DD838688007F7D420784007E1
:1024100068D5DFF8CCB100270BF13C0BDBF80000EE
:10242000C0000BD4DBF8001041F08051CBF8001055
:10243000DBF80000012700F0805000906B4E306800
:10244000C00510D4306840F480703060FFF79CFD08
:10245000009005E0FFF798FD0099401A022850D837
:102460003068C005F6D55E4EA0686C3601280FD0E6
:102470000528306810D020F001003060306820F06E
:1024800004003060A068B8B1FFF77EFD00900FE057
:10249000306840F00100F4E740F004003060F7E7F6
:1024A000FFF772FD0099411A41F28830814266D8E7
:1024B00030688007F4D50EE0FFF766FD009007E076
:1024C000FFF762FD0099411A41F28830814256D8E7
:1024D00030688007F4D42FB1DBF8001021F0805170
:1024E000CBF80010A069C8B33D49091D0968C1F3C4
:1024F000810102294AD00228504607D0C8F860005E
:1025000000E03CE0FFF740FD04463BE04746C8F8EA
:102510006000FFF739FD064605E000BFFFF734FD18
:10252000801B02282BD828688001F7D4D4E9070142
:102530000843A16A2E4A490802EB0141626A41EA56
:102540008211084394F82C1040EA0161C9F8001088
:1025500001203866FFF718FD044606E03EE000BFA4
:10256000FFF712FD001B022809D828688001F7D563
:1025700034E000BFFFF708FD001B022802D903204A
:10258000BDE8F88F28688001F4D427E00128F7D04F
:10259000D9F80000E26900F4800191421CD1226A5E
:1025A00000F03F01914217D147F6C071626A0140C5
:1025B000B1EB821F10D1A26A4FF0FF3300F440311B
:1025C00003EB5202B1EB024F06D194F82C1000F04D
:1025D0007060B0EB016F01D00120D1E70020CFE7A0
:1025E0000438024000004742800E4742007000401D
:1025F0000000FFFF70B5040009D0606A002540B1FB
:1026000025616561A56294F8510040B10CE001209C
:1026100070BD6068B0F5827FF4D0E561F2E784F8C0
:102620005050204600F044F8022084F85100206801
:10263000016821F040010160A088218900F48270C6
:1026400001F404410843A18901F400610843217C9D
:1026500001F002010843217D01F001010843218BB3
:1026600001F400710843217F01F03801084394F818
:10267000201001F080010843218D01F4005108432E
:1026800021680860A069042101EA104094F8241030
:1026900001F010010843216848602068C16921F4F5
:1026A0000061C1616565012084F85100002070BDA2
:1026B000F0B587B0044614216846FEF79FFA1A4920
:1026C000206888422DD119480024016841F4004156
:1026D0000160006800F4004005901448103801685B
:1026E00041F0020101600068022500F0020005903F
:1026F0004FF48050CDE90005032602940720CDE970
:1027000003600B4F69463846FFF748FB3020CDE9A0
:10271000000502940620CDE9036069463846FFF7BC
:102720003DFB07B0F0BD0000003C004040380240D7
:10273000000402402DE9FF4F81B01D469346044638
:102740004FF001090E9EFFF71FFC074694F8510059
:102750006168012806D0B1F5827F3CD1A168C9BB70
:10276000042838D10298002871D0BBF1000FFBD0AB
:10277000002DF9D094F8500001282CD04FF0010A18
:1027800084F850A094F85100042802D0052084F861
:1027900051004FF00008C4F85480C4F838B0E58701
:1027A000A58702992163E586A586C4F84080C4F810
:1027B000448020680168490603D4016841F0400163
:1027C0000160E068B0F5006F606808D0F0B3012DDB
:1027D00049D081E0FFE7022005B0BDE8F08F08B1E5
:1027E000012D39D1206B21680088C860206B801CC6
:1027F0002063E08E401EE0862EE020688168890715
:102800000FD5E18E69B1B9F1010F0AD1216B0988A9
:10281000C160206B801C2063E08E401EE0864FF07C
:10282000000920688168C9070CD0E18F51B1C068E8
:10283000A16B0880A06B801CA063E08F401EE08726
:102840004FF00109FFF7A0FBC01B01E00BE067E0C0
:10285000B04201D3701C50D1E08E0028CDD1E08F62
:102860000028CAD13EE0206B216800780873206BF5
:10287000401C2063E08E401EE0862DE020688168C9
:1028800089070FD5E18E69B1B9F1010F0AD1216B2A
:1028900009780173206B401C2063E08E401EE086A7
:1028A0004FF0000920688168C9070CD0E18F51B151
:1028B000C068A16B0870A06B401CA063E08F401E35
:1028C000E0874FF00109FFF75FFBC01BB04202D366
:1028D000701C01D011E086B1E08E0028CED1E08FCF
:1028E0000028CBD13A463146204602F043FA50B197
:1028F0002020606584F8508012E084F851A084F8AC
:102900005080032068E7A06818B92068C168806813
:10291000009084F851A084F85080606D0028F1D0B8
:10292000012059E710B5401EB0F1807F01D301208E
:1029300010BD4FF0E02460610F21601702F0B0FF7E
:102940000020A06107202061002010BD7047704763
:1029500070B590F83C20012A2CD0012480F83C402E
:10296000022280F83D2003685A689D6822F07006B4
:102970000A6832435A60104B02689A420ED0B2F194
:10298000804F0BD00D4B9A4208D00D4B9A4205D088
:102990000C4B9A4202D00C4B9A4204D1496825F064
:1029A00080031943916080F83D40002180F83C107D
:1029B000084670BD022070BD0000014000040040C8
:1029C00000080040000C00400040014010B5040029
:1029D00003D094F83D0010B107E0012010BD0020A5
:1029E00084F83C00204600F01FF8022084F83D00E7
:1029F000211D206802F0EEFB012084F8460084F8D7
:102A00003E0084F83F0084F8400084F8410084F8D8
:102A1000420084F8430084F8440084F8450084F8B8
:102A20003D00002010BD000008B5114A01681148A2
:102A3000914207D1016841F001010160006800F096
:102A4000010009E00C4A914211D1016841F40031C2
:102A50000160006800F40030002200901146192047
:102A6000FFF700FBBDE808401920FFF7EDBA08BDED
:102A700000000140443802400044014090F83D10FD
:102A8000012901D001207047022180F83D10016822
:102A9000CA6842F00102CA6000680E4988420ED03E
:102AA000B0F1804F0BD00C49884208D00B498842C6
:102AB00005D00B49884202D00A49884204D1816876
:102AC00001F00701062903D0016841F0010101600E
:102AD0000020704700000140000400400008004052
:102AE000000C00400040014070B5044690F83C00E6
:102AF0000025012817D0012684F83C60022084F8C4
:102B00003D002068826822F0770222F47F428260D2
:102B10000868502838D00DDC20284FD005DC90B351
:102B2000102811D14AE0022070BD302846D040283C
:102B30000AD13BE060282FD070280DD0B0F5805F1F
:102B400003D0B0F5005F12D0012584F83D6000206D
:102B500084F83C00284670BDCB68D1E9012120688B
:102B600002F097FB2068816841F0770109E0CB68AB
:102B7000D1E90121206802F08CFB2068816841F4D2
:102B800080418160E1E719E0CA684968206802F085
:102B900035FC5021206806E0CA684968206802F0C8
:102BA0003EFC6021206802F07EFBCEE7CA684968DF
:102BB000206802F023FC40212068F4E722680146E7
:102BC0001046F0E770472DE9F04104460068C668FA
:102BD00005694FF00007A90713D5B10711D5F91EF4
:102BE000016101202077206880698007204602D09B
:102BF000FFF7E8FF04E000F0A7F8204600F04CF9EA
:102C00002777680716D5700714D521686FF0040080
:102C10000861022020772068806910F4407F2046F8
:102C200002D0FFF7CFFF04E000F08EF8204600F05E
:102C300033F92777280715D5300713D521686FF0AA
:102C400008000861042020772068C06980072046BA
:102C500002D0FFF7B7FF04E000F076F8204600F05E
:102C60001BF92777E80616D5F00614D521686FF012
:102C700010000861082020772068C06910F4407FA8
:102C8000204602D0FFF79EFF04E000F05DF82046EA
:102C900000F002F92777E80708D0F00706D021688E
:102CA0006FF001000861204600F050F9280608D5B1
:102CB000300606D521686FF0800008612046FFF7D6
:102CC00045FE680608D5700606D521686FF04000FD
:102CD0000861204600F04EF9A8060AD5B00608D5CE
:102CE00021686FF0200008612046BDE8F041FFF741
:102CF0002EBEBDE8F081000010B586B00446142158
:102D00006846FDF77BFF0D492068884214D10C48C6
:102D10000021026842F002020260006800F0020036
:102D20000590032000900220CDE90101CDE90310B8
:102D300069460448FFF732F806B010BD00040040B1
:102D40003038024000040240704770B5044690F8E5
:102D50003C0000260D4601280FD0012084F83C00DD
:102D60006AB1042A1DD0082A2FD00C2A3FD0012690
:102D7000002084F83C00304670BD022070BD206801
:102D800002F09AFA2068816941F0080181612068A7
:102D9000816921F004018161206881692A691143F8
:102DA00011E0206802F0B0FA2068816941F4006106
:102DB00081612068816921F4806181612068816975
:102DC0002A6941EA02218161D2E7206802F0C8FA4B
:102DD0002068C16941F00801C1612068C16921F022
:102DE0000401C1612068C1692A69114311E02068AA
:102DF00002F0E2FA2068C16941F40061C161206813
:102E0000C16921F48061C1612068C1692A6941EA10
:102E10000221C161ACE710B5040003D094F83D0075
:102E200010B107E0012010BD002084F83C002046CE
:102E300000F01EF8022084F83D00211D206802F0F9
:102E4000C9F9012084F8460084F83E0084F83F0068
:102E500084F8400084F8410084F8420084F843007C
:102E600084F8440084F8450084F83D00002010BD3B
:102E700008B500680649884208D10648016841F053
:102E800002010160006800F00200009008BD00002F
:102E900000040040403802407047000010B504466E
:102EA000022249B104290ED0082913D094F8410018
:102EB000012816D0012010BD94F83E000128F9D158
:102EC00084F83E200FE094F83F000128F2D184F806
:102ED0003F2008E094F840000128EBD184F840201E
:102EE00001E084F841200122206802F0C5F912496E
:102EF0002068884203D1426C42F400424264206858
:102F000088420ED0B0F1804F0BD00C49884208D0D7
:102F10000B49884205D00B49884202D00A498842B1
:102F200004D1816801F00701062903D0016841F04E
:102F300001010160002010BD0000014000040040BC
:102F400000080040000C00400040014010B500683F
:102F50000649884209D103F087FB00F0B7FB01F076
:102F6000ADFF03480168491C016010BD000001402D
:102F7000E00000207047704700680349884202D192
:102F8000024900200870704700440040DC00002027
:102F9000F8B5016804460868CA684B6910F00F0F5D
:102FA0004FF0000559D003F0010602F49077374343
:102FB00065D0C10705D0D10503D5616C41F0010191
:102FC0006164410705D5D90703D0616C41F0020166
:102FD0006164810705D5D90703D0616C41F0040114
:102FE0006164010707D502F02001314303D0616C11
:102FF00041F008016164616C00293AD0800604D573
:10300000900602D5204602F0F6FA20684069616C0D
:10301000C0F38010090700D460B3204602F0B6FA6E
:1030200020684069400621D52068143050E8001F10
:1030300021F0400140E80012002AF5D1E06BA8B170
:103040006E490165E06BFEF713FD002811D0E06BBF
:10305000016D01B0BDE8F040084783060FD5930627
:103060000DD52046BDE8F84002F0C5BA2046FFF76E
:1030700083FFF8BD2046FFF77FFF6564F8BD266B30
:103080002023012E7DD1C6067BD5D60679D50868CA
:103090004868009048694FF00206400641D5E16B50
:1030A000086840680004000CE8D0A28D8242E5D98F
:1030B000E085C869B0F5807F2DD020680C3050E8DD
:1030C000001F21F4807140E80012002AF5D1206829
:1030D000143050E8001F21F0010140E80012002ADE
:1030E000F5D12068143050E8001F21F0400140E87D
:1030F0000012002AF5D184F84230256320680C3094
:1031000050E8001F21F0100140E80012002AF5D11C
:10311000E06BFEF764FC6663A08DE18D401A81B21E
:103120002AE0A08DE18D401A81B2E08D0028A5D063
:103130000029A3D022680C3252E8000F20F49070CE
:1031400042E80007002FF5D12068143050E8002F26
:1031500022F0010240E80027002FF5D184F8423028
:10316000256320680C3050E8002F22F0100240E860
:103170000023002BF5D166632046FFF7FCFEF8BD67
:10318000FFE705062BD5150629D594F8410021281F
:10319000F5D1A068B0F5805F01D12069B0B1206A97
:1031A000411C2162216800784860E08C401E0004C8
:1031B000000CE084E3D12068C16821F08001C16087
:1031C0002068C16841F04001C160D8E7206A0088EA
:1031D000C0F308004860206A801C2062E5E74006D2
:1031E000CDD55006CBD5CA68204622F04002CA6031
:1031F00084F8413000F094F9C1E70000435400081E
:1032000070B5040004D094F84100002510B106E028
:10321000012070BD84F84050204600F023F824209F
:1032200084F841002068C16821F40051C160204643
:1032300002F042FA2068016921F49041016120689E
:10324000416921F02A0141612068C16841F40051BF
:10325000C1606564202084F8410084F84200656301
:10326000002070BD2DE9F04F87B004461421684658
:10327000FDF7C4FC6F48DFF8B881D4F800C06D4F8B
:1032800014380221032207266B4B00254FF0400B18
:103290004FF000694FF4806AC4454CD1D7F800C0A4
:1032A0004CF0100CC7F800C03F6807F010070597F6
:1032B000076847F001070760006800F0010005900B
:1032C00050028DE82300CDE9032669461846FEF733
:1032D00065FD5B4E59484F463060C6E90195C6E929
:1032E000035A7561B561F5613562D0463046756245
:1032F000FEF7A0FC08B1FEF770FBE663B463504E26
:103300004E4860367830C6E903587561B561F5619D
:103310003562756286E881083046FEF78BFC08B19D
:10332000FEF75BFBA663002211462520B463FEF77F
:1033300099FE252051E0DFF80C81C44552D13D4F64
:103340003F1FD7F800C04CF4003CC7F800C03F68EE
:1033500007F400370597076847F001070760006822
:1033600000F0010005900C208DE82300CDE9032634
:1033700069461846FEF712FD314E3348C036C8463E
:10338000C6E9035A7561B561F5613562756286E813
:10339000010957463046FEF74DFC08B1FEF71DFB0C
:1033A000A663B4632848294E18383060C6E9018501
:1033B000C6E903577561B561F561356230467562DE
:1033C000FEF738FC08B1FEF708FBE6630022114661
:1033D0002620B463FEF746FE2620FEF735FE07B032
:1033E000BDE8F08F1A4CA445F9D13C6844F02004A4
:1033F0003C603C6804F020040594046844F0010437
:103400000460006800F0010005904FF4C0508DE8A2
:1034100023000820CDE9032069461846FEF7BEFCCC
:10342000002211464720FEF71DFE4720D5E7000089
:103430000010014044380240000002404064024055
:103440007C05002000440040A06002409C06002053
:103450000014014090F84230202B01D00220704728
:1034600021B11AB10023036302F0ACB90120704707
:1034700010B50068074988420AD10749074803F098
:1034800081F8BDE81040192203490548FFF7E2BF63
:1034900010BD0000001001406C0900202C09002024
:1034A000A40400207047000070B5044690F8410065
:1034B000202801D0022070BD49B342B32162A2840A
:1034C000E28400206064212384F84130A56B114B15
:1034D000EB63A56B104B2B64A56B104BEB64A36BDC
:1034E0001865256813462A1DA06BFEF70DFC2168A0
:1034F0006FF0400008602068143050E8001F41F071
:10350000800140E80012002AF5D1002070BD0120A2
:1035100070BD000041550008835500085354000851
:1035200000680349884202D10249002008707047B0
:1035300000440040DC0000207047000070B50446E5
:1035400000203C4D2074A27B288861684243D4F857
:10355000F400FDF73AFBA17B288841436068FDF742
:103560004DFBA07B10FB00F128884143D4F81801E3
:10357000FDF744FB207BA17B10FB01F12888414330
:10358000D4F80C01FDF73AFB00202BE0D4F8F4103E
:1035900001EB800292ED000AB5EEC00AF1EE10FADE
:1035A0001ED0227C01EB820181ED000A227C616A3F
:1035B0008854A169227B01EB8001237C91ED000AF4
:1035C0006169095C12FB03116FF0030202EB8101D8
:1035D000D4F80C21114481ED000A217C491C21748E
:1035E000401CC0B2A17B8142D0D8002010E0636AA9
:1035F000E2691B5C02EB830292ED000A10FB010101
:10360000D4F81821401C02EB8101C0B281ED000A00
:10361000217C8142EBD8C8B224F8780F14F86C0CE6
:10362000608020816181218361832084618424F80A
:10363000301C70BD04010020FEE7000010B51F48DB
:10364000FEF762F91D48B0EE403A203880ED090AD5
:1036500090ED0A0A30EE030A80ED0A0A19489FED40
:10366000180AA0F1700480ED100AD4ED041AC0ED20
:10367000071A94ED052A80ED082AD4ED062AC0ED3C
:10368000092A94ED000A80ED040AD4ED010AC0ED88
:10369000050A94ED021A80ED061A00F0BBF90A48FB
:1036A00090ED6A0A84ED1A0A90ED690A84ED190A10
:1036B00090ED680A84ED180A10BD0000800000201B
:1036C00096430B3C80070020800D002010B5FDF7CD
:1036D0000FFFFDF77BFFFDF753FD00F015FDBDE883
:1036E0001040FFF7ABBF000010B504462DED048B72
:1036F000D0F8EC00D0ED009A90ED019AD0ED028A5E
:1037000029EEA90A90ED038A09EE090A08EEA80A33
:1037100008EE080A02F072FD5FF00000D4F8EC1029
:1037200001EB8001401CD1ED000AC0B2042860EE1C
:10373000800AC1ED000AF1D33E48D4F8001190EDA3
:103740006F0A60EE090AB6EE000A60EE800AC1ED6B
:10375000040AD0ED6F0AD4F8001160EEA80A60EEFA
:10376000800AC1ED050AD0ED6F0AD4F8001120EEF1
:10377000A91AFEEE000A21EE201A81ED0A1A90ED38
:103780006F1AD4F8001121EE081A21EE001A81ED0B
:103790000B1A90ED6F1AD4F8001121EE081A21EEE1
:1037A000201A81ED101A90ED6F1AD4F8001121EE55
:1037B000291A21EE201A81ED111A90ED6F1AD4F812
:1037C000001121EE281A21EE000A81ED160A90ED73
:1037D0006F0AD4F8001120EE090A20EE200A81EDCC
:1037E000170AD4F8F810D0ED740A91ED1C0A80EE97
:1037F000201A81ED1C1AD4F8F810D0ED740A0E4886
:1038000091ED230A80EE201A9FED0C0A81ED231A18
:10381000D4F8F8100A6F824201DD81ED1C0AD4F859
:10382000F810D1F88C20824201DD81ED230ABDEC35
:10383000048B10BD800D002000401C4600401C463B
:1038400070B52C4C01252DED028B04F5D870257038
:10385000B7EE008A80EC030A00209FED270A84ED72
:10386000730A84F83801C4E95000C4E9520011EE2B
:10387000900AB0F17E5F01DDF0EE481AC4ED741AD3
:1038800084ED642A032300220621201D00F0A4FCFD
:103890001A4B01221146A3F10800FCF71DFD54F854
:1038A000EC0F9FED170A902280ED008A54F864090E
:1038B000184980ED010A606E80ED020A606E80EDAD
:1038C000030A1048A0641048E064104820651048BE
:1038D000606504F85A5C04F8595CE06FFDF775F90F
:1038E000606F9022BDEC028B0B49BDE87040FDF784
:1038F0006CB90000800D002077CC2B32480F0020DF
:10390000000000001D390008E936000851390008A0
:10391000513D000860670008D802002010B5044639
:10392000902254F8F81F0848FDF74FF9482207483D
:10393000616AFDF74AF9054861694822BDE810400F
:103940004830FDF742B90000D8020020600F002087
:1039500070B50446B0EE000A54F8EC0F2B4DD0EDD4
:10396000000A60EE800AC5ED090AD0ED010A60EE9A
:10397000800AC5ED0A0AD0ED020A60EE800AC5EDA4
:103980000B0AD0ED030A20EE800A85ED0C0A14F82C
:10399000DE0C14F8E01C10FB01F11D4800884143C7
:1039A000206AFDF72BF9D5ED0B1A206AB1EE612ADA
:1039B00080ED002A206AD5ED0C0AC0ED010A95EDD4
:1039C000090A206AB1EE401A80ED021A206A95EDCC
:1039D0000A1A80ED031A206A80ED061A206A80ED2B
:1039E000070A206AC0ED080A206AC0ED091A206A99
:1039F00080ED0C0A206AB1EE410A80ED0D0A206AC2
:103A000080ED0E2A206AC0ED0F0A70BD84020020EE
:103A10000401002070B5C54C2DED0A8BF0EE438AF1
:103A2000B0EE628AB0EE429AF0EE619AB0EE41AA30
:103A30002078B0EE60BAF0EE40BADFEDBDAA58B91A
:103A4000B0EE6A2AF7EE001A9FEDBA1ADFEDBA0A55
:103A5000B2EE040AFFF7F4FEC4ED6F8A94ED580A43
:103A6000B6EE001AD4F804013BEEC0CA94ED590A30
:103A70007BEE40BA94ED5A0A3AEE40BA2CEE010AB7
:103A8000B7EE00AA60EE280A2BEE810A2BEE011A8F
:103A9000B1EE602A20EE280A80ED012AD4F8040154
:103AA00021EE281AF1EE402AC0ED022AD4F80401D2
:103AB000F1EE411AC0ED031AD4F80401C0ED060A74
:103AC000D4F8040180ED081AD4F80401C0ED092AE5
:103AD000D4F8040180ED0C0AD4F80401C0ED0D1AED
:103AE000D4F80401C0ED0F0AD4F8040180ED121AD5
:103AF000D4F8040180ED130AD4F8040180ED142AEF
:103B0000D4ED640AD4E9520130EEA81A084380EEDD
:103B1000810A09D0D4ED5E0A60EE800A3AEE401ABE
:103B200049EE810AF0EE609AC4ED5E9A0AD000BFB9
:103B3000D4ED5F0A3AEE401A60EE800A49EE010ABF
:103B4000B0EE609A84ED5F9A09D0D4ED600A60EE21
:103B5000800A3AEE400A48EE000AB0EE608A29EE8A
:103B6000A90A84ED608A09EE090A08EE080A02F043
:103B700045FBB0EE408A94ED5E0AA06820EE080A8C
:103B800080ED000A94ED5F0AA06820EE080A80ED3F
:103B9000010A94ED600AA06820EE080A80ED020A8E
:103BA0002CEE0C0A0BEEAB0A0BEE0B0A02F026FB16
:103BB000F0EE400A10EE900A6049C4ED650A84ED0B
:103BC000668A884208DA18EE100A5D4908445D49A1
:103BD000884201D2012000E0002084F8390194EDF0
:103BE0006C0AD4ED6D0AD4F8180120EE280A20EEF4
:103BF000A81AD4ED6E0A80ED000AD4F8180180ED01
:103C0000070AD4F8180180ED0E0AD4F8180180EDE7
:103C1000150AD4F8180180ED1C1AD4F8180180EDAB
:103C2000231AD4F81C01C0ED000AD4F81C01C0ED21
:103C3000040AD4F81C01C0ED080A201D00F0B6FDEE
:103C40006068414DB0EE4A8A90ED002AF0EE008A9D
:103C500084ED542AD0ED011A9FED3C9AC4ED551A1B
:103C600090ED020AB1EE401A84ED561A90ED030A67
:103C700061EE012A84ED570AD0ED040AC4ED580A1A
:103C8000D0ED050A40EE002AC4ED590AC4ED5AAA47
:103C900085ED112AC5ED121A85ED131A85ED140A6A
:103CA00022EE000AF0EE480A42EEE80A01EE810A2E
:103CB00020EE280A01F026FF20EE090AF0EE480A5D
:103CC00084ED6A0A95ED121A95ED130A61EE011A58
:103CD00040EE001A41EEE80AD5ED111A21EE811AE4
:103CE000D5ED141A00EE211A21EE280A01F00AFF80
:103CF00020EE090A84ED690A95ED120AD5ED140A41
:103D000095ED131A20EE200AD5ED110A00EEC10A36
:103D1000F8EE000A20EE200A01F05EFE20EE090A0D
:103D200084ED680ABDEC0A8B70BD0000800D002098
:103D3000000000008096184B6F12833A9A99993EC2
:103D40003233EBBEFFFF0F0084020020E12E6542FC
:103D50002DE9F84F00F180010446783005460091C6
:103D6000FCF778FE84F8C800B4F87800A4F8A8003E
:103D7000B4F85A00A4F8AA0004F1A80204F158010A
:103D800091468B462846FCF743FD84F8C800B4F8FA
:103D9000A800A4F8B000B4F88200A4F8B20004F1BE
:103DA000B002904648460099FCF732FD84F8C800FE
:103DB000B4F89000A4F8A000B4F89200A4F8A2000F
:103DC00004F1A002154604F190014046FCF700FA08
:103DD00084F8C80041462846B034FCF781FA2076C2
:103DE000E16BBF480126D1ED001AB0EE002AC0ED0C
:103DF0000D1AD1ED010A0027C0ED0E0A91ED020A5D
:103E0000B84D80ED0F0A91ED031A80ED101A60EEA7
:103E1000812A34F8380C2081668141EEC02AE06F97
:103E200062EE822AC0ED002A61EEA02A61EEA11A9C
:103E3000E06F40EE012A40EEE01A22EE822A40EEC8
:103E4000401A80ED012AE06FB4F1B00441EE011A8E
:103E5000C0ED021AD4F82C0100EB870090ED000AA7
:103E6000B0EEC00A01F02CFD05EB87007F1CFFB20D
:103E700080ED610A032FEDD3B4F84800A4F8C00028
:103E800004F1C00204F1B801A4F8C26017468A46E2
:103E900004F14800FCF75AFD84F8C800B4F8C000EB
:103EA000A4F8A80024F8AA6F4A4639464046FCF711
:103EB000AFFCA077E681E08A208251463846FCF7C5
:103EC000C9FDA077884A49465046FCF7A1FCA07777
:103ED00095ED730AB6EE001AD5ED720A20EE011ABE
:103EE000AA3CF4EEC10AF1EE10FA01D285F838616D
:103EF000F4EEC00A0020F1EE10FA35DD95F8381125
:103F000089B395F8391139B1D5E95021521C41F1E5
:103F10000001C5E9502102E00021C5E95011D5E9B1
:103F200050234FF0320C0021BCEB0202994102D227
:103F300085F8380136E06D4D14F80C2F288842437F
:103F4000D4E937017434FCF740FE14F8740C10FB0C
:103F500000F228884243D4E91E01FCF736FE04F83B
:103F6000546CBDE8F88FFFE79FED611A20EE011A4F
:103F7000F4EEC10AF1EE10FA0DDD95F8381151B1E9
:103F800070EE600A9FED5B1A20EE010A80EE801A47
:103F900085ED671A03E0B7EE000A85ED670A002198
:103FA000C5E9501184F82C00B4F85800A4F8A80012
:103FB000B4F88200A4F8AA004A4658466C34009926
:103FC000FCF726FC04F85C0FA4F13002934641464E
:103FD0004846C83CFCF71CFC84F8C80000200DE0F3
:103FE000D4F81C11D5ED670A01EB8001401C91ED5E
:103FF000000AC0B220EE200A81ED000AB4F8981041
:10400000B4F89A2051438142EADC04209FED3A0A39
:10401000002105EB800C00EB400300BF9CED5D1A16
:10402000D4F81C2103EB0108C1EE000A02EB880260
:10403000491C92ED001AC9B2032960EE810AC2ED53
:10404000000AEBD3401CC0B20628E1D334F8980F25
:1040500052462084668439465846FCF7D9FB84F8DA
:10406000300095F83801983C50B39FED240ADFEDFD
:10407000240A0420D4F8BC1095ED6F1A01EB8001DE
:1040800021EE001AD1ED001AF4EEC11AF1EE10FA89
:1040900001DD81ED001AD4F8BC1095ED6F1A01EB2B
:1040A000800121EE201AD1ED001AF4EEC11AF1EED2
:1040B00010FA01D281ED001A401CC0B20628D9D3F3
:1040C000D4F8BC009FED0F0A04F1300280ED030A22
:1040D000514604F13800FCF77BF884F8C80040E74B
:1040E00084020020800D0020400F002004010020E9
:1040F000CDCCCC3D6666663FDA0FC93F0AD7233C7C
:104100000AD723BC0000000010B5FDF73DFF00EE0C
:10411000100A2B4A2B48B8EE400A2D4982ED140AAA
:10412000D2ED120A70EE600AC2ED130A90ED001A89
:10413000DFED250AC1EE201A9FED241A81EE812AB7
:1041400081ED002A90ED012AC2EE201A81EE812A2B
:1041500081ED012A90ED022AC2EE201AC1EE810AF9
:10416000C1ED020A90ED041ADFED1A0A61EE201A81
:1041700092ED001A61EE811AC1ED041AD0ED051A14
:1041800061EEA01A61EE811AC1ED051AD0ED061A92
:1041900061EEA00A60EE810AC1ED060A82ED120A04
:1041A00090ED080AB1EE400A81ED080A90ED090A87
:1041B00081ED090A90ED0A0A81ED0A0A10BD00009E
:1041C00060000020880900206F128341E12E6542C3
:1041D00010070020E7416B3A2DE9F047DFF8DC8358
:1041E0000D460421A8F800100821A8F80210057354
:1041F000427383734FF000091E46044680F8109006
:104200001746304602F04EF831466061FCF7F6FC86
:10421000B8F80000704302F045F8A061B8F800104B
:104220007143FCF7EBFCB8F80000704302F03AF879
:10423000E061B8F800107143FCF7E0FCB8F800004A
:10424000684302F02FF82062B8F800106943FCF7C9
:10425000D5FC304602F026F831466062FCF7CEFC11
:10426000B8F80000684302F01DF82060B8F80010AC
:104270006943FCF7C3FCB8F80000704302F012F881
:104280006060B8F800107143FCF7B8FCB8F80000A3
:10429000784302F007F8A060B8F800107943FCF703
:1042A000ADFCB8F80000684301F0FCFFC4F8E8007A
:1042B000B8F800106943FCF7A1FC217B012204F14E
:1042C0003000D4F8E830FCF707F8B8F8000068438D
:1042D00001F0E8FFC4F8EC00B8F800106943FCF7FF
:1042E0008DFC217B012204F13800D4F8EC30FBF77F
:1042F000F3FF9FB1B8F80000784301F0D3FFC4F892
:10430000F000B8F800107943FCF778FC617B0122DB
:1043100004F14000D4F8F030FBF7DEFFB8F80000FD
:10432000704301F0BFFFC4F8F400B8F80010714307
:10433000FCF764FCA17B012204F14800D4F8F430BE
:10434000FBF7CAFFB8F800006843684301F0AAFF12
:10435000C4F8F800B8F8001069436943FCF74EFC54
:10436000217B04F150000A46D4F8F830FBF7B4FF83
:10437000B8F800006843684301F094FFC4F8FC00FB
:10438000B8F8001069436943FCF738FC217B04F15D
:1043900058000A46D4F8FC30FBF79EFFB8F800003E
:1043A0006843684301F07EFFC4F80001B8F80000DC
:1043B00088346843684301F075FFE067B8F800107F
:1043C000A06F69436943FCF719FCB8F80010E06F6F
:1043D00069436943FCF712FC54F8783FA4F1A0004C
:1043E00014F8F41CA4F580740A46FBF775FF217BD2
:1043F00004F168000A46D4F80431FBF76DFFAFB151
:10440000B8F800006843784301F04CFFC4F8080195
:10441000B8F8001069437943FCF7F0FB627B217B1D
:1044200004F17000D4F80831FBF756FFB8F800002B
:1044300047467043684301F035FFC4F80C013888E3
:1044400094346843704301F02DFFE0673988A06F12
:1044500071436943FCF7D2FB3988E06F69437143CC
:10446000FCF7CCFB14F8882C14F8861CA4F11C0073
:10447000A36F943CFBF730FFA27B217B04F180000B
:10448000D4F81031FBF728FF38886843684301F0FF
:1044900009FFC4F81401398869436943FCF7AEFB8E
:1044A000217B04F188000A46D4F81431FBF714FF8D
:1044B00038887043704301F0F5FEC4F8180139885C
:1044C00071437143FCF79AFBA17B04F190000A460B
:1044D000D4F81831FBF700FF38886843704301F0C7
:1044E000E1FEC4F81C01398869437143FCF786FB7F
:1044F000A27B217B04F19800D4F81C31FBF7ECFE81
:10450000207B10FB00F03988484301F0CBFEC4F853
:104510002001207B10FB00F03988484301F0C2FEE7
:10452000C4F82401207B10FB00F03988484301F0D7
:10453000B9FEC4F82801207B3988484301F0B2FE57
:10454000C4F82C01207B3988484301F0ABFEC4F845
:104550003001217B04F1A0000A46D4F82031FBF79A
:10456000BBFE217B04F1A8000A46D4F82431FBF7F6
:10457000B3FE217B04F1B0000A46D4F82831FBF7E2
:10458000ABFE217B012204F1B800D4F82C31FBF7FB
:10459000A3FE217B012204F1C000D4F83031FBF7E7
:1045A0009BFE04F8289F84F8019084F8029084F818
:1045B000039084F80490BDE8F08700000401002017
:1045C00070B50446C07B0F4D18B12046FEF7B6FF0C
:1045D0000DE0A27B288861684243D4F8F400FCF720
:1045E000F4FAA17B288841436068FCF707FB627BF3
:1045F0002888A1684243D4F8F000BDE87040FCF779
:10460000E4BA0000040100202DE9F041044690F8CE
:104610002C0000282BD1B4F89800A4F8A800B4F816
:104620007A10A4F8AA10A4F8B000B4F85A00A4F8BC
:10463000B20004F1A802174604F1780104F19800D1
:10464000FCF7E6F884F8C80004F1B00204F1580160
:1046500016460D463846FCF7DBF884F8C80004F12E
:10466000500231462846FCF771F984F8C800BDE8CD
:10467000F0812DE9F041044690F8290000282CD162
:1046800004F1680104F160000F460546FCF7E2F909
:1046900084F8C80004F15802164604F15001284677
:1046A000FCF7B6F884F8C800B4F85800A4F8A800DD
:1046B000B4F86A00A4F8AA0004F1A8021546394625
:1046C0003046FCF7A5F884F8C800324604F18801AA
:1046D0002846FBF77DFD84F8C800BDE8F0812DE990
:1046E000F047044690F82A0000285CD104F18001CC
:1046F00004F1780089460546FCF7ACF984F8C80057
:10470000B4F87800A4F8A800B4F85A00A4F8AA00F5
:1047100004F1A80204F1580190460F462846FCF720
:1047200077F884F8C800B4F8A800A4F8B000B4F88A
:104730008200A4F8B20004F1B00215464946404692
:10474000FCF766F884F8C800B4F89000A4F8A0005C
:10475000B4F89200A4F8A20004F1A002164604F1F5
:1047600090012846FBF734FD84F8C80029463046FE
:10477000AA34FBF7B5FDA07734F8520C24F8020CEC
:1047800034F8280C2080424649463846FCF740F869
:1047900004F81E0FA4F1300229464046C83CFCF73D
:1047A00037F884F8C800BDE8F087000070B504460B
:1047B000FFF706FFD4F8CC1009B120468847204601
:1047C00000F068F8D4F8D01009B120468847204698
:1047D000FFF74FFFD4F8D41009B120468847207C5A
:1047E0002B4DC0B9E07BB0B1227B28884243D4E98D
:1047F0003A01FCF7EAF9207B10FB00F228884243DB
:10480000D4E93E01FCF7E1F9D4F8E01009B1204603
:10481000884700202AE02046FFF761FFD4F8D8102F
:1048200009B120468847204600F06EF8D4F8DC1025
:1048300009B1204688472046FFF7E6FEE4E700BFBF
:1048400010FB0101D4F8F82002EB8101226AD1EDBE
:10485000000A02EB800292ED000AF4EEC00AF1EECB
:1048600010FA01D281ED000A401CC0B2217B8142C6
:10487000E6D8CAB22888D4F8E81042432068FCF78A
:10488000A4F9D4F8E41009B120468847206870BD27
:10489000040100202DE9F041044690F8280000288A
:1048A0002AD1627B04F1300104F1600004F1380583
:1048B00022B3227BA4F8B820012604F1B802A4F8A0
:1048C000BA601746FBF7A4FF84F8C800207BA4F861
:1048D000C000A4F8C26004F1C002164604F1400111
:1048E00004F17000FBF794FF04F8C80F2A46314624
:1048F0003846FBF76DFC2070BDE8F0812A46FBF7D7
:1049000087FF84F8C800F7E72DE9F041044690F8E6
:104910002B00002838D1B4F87800A4F8B80001259D
:1049200004F1B80204F13801A4F8BA5090460F46D9
:1049300004F17800FBF76CFF84F8C800B4F8480075
:10494000A4F8C00004F1C002A4F8C25016464146C3
:1049500004F14800FBF7FAFF84F8C800B4F89800A7
:10496000A4F8B800A4F8BA504246314604F19800C1
:10497000FBF74EFF84F8C80004F130024146384688
:10498000FBF726FC84F8C800BDE8F08110B5DFED28
:104990000E0A9FED0E0A0E48FCF7AEFE0C48F2EE32
:1049A000040A9FED0C0A3038FCF7A6FE08480A49B5
:1049B0009C30FCF7B9FE08490548B431BDE8104009
:1049C0003030FCF7B1BE000000002F44CDCCCC3D10
:1049D000040C0020CDCC4C3E1C010020F0EE400A1F
:1049E000C0ED020A91ED030AD1ED041A90ED011A0F
:1049F00020EE200A90ED002AD0ED032A01EE810A74
:104A0000D1ED051A01EE820A91ED012AD0ED041ACA
:104A100002EE610A91ED022A02EE620A80ED050AB9
:104A200080ED001AC0ED010AC0ED031A80ED040A02
:104A300070470000194808B5016841F40011016091
:104A4000016801F400110091016841F480010160E6
:104A50000068002200F48000009011461020FDF74D
:104A600001FB1020FDF7F0FA002211461120FDF79E
:104A7000F9FA1120FDF7E8FA002211463A20FDF775
:104A8000F1FA3A20FDF7E0FA002211464620FDF740
:104A9000E9FABDE808404620FDF7D6BA30380240B2
:104AA0002DE9F04186B014216846FCF7A7F81F48AD
:104AB0000025016841F080010160016801F080017A
:104AC0000591016841F001010160016801F00101F7
:104AD0000591016841F0020101600068144F00F087
:104AE00002000590002210213846FDF747FADFF852
:104AF00044804FF44076012231464046FDF73EFAAD
:104B000001241020CDE9000469463846CDE902456C
:104B1000FDF744F90220CDE90250CDE90064694671
:104B20004046FDF73BF906B0BDE8F0813038024061
:104B30000000024000040240104810B50E49016018
:104B40004FF48271416000214FF40062C0E902120B
:104B500092100161C0E905121022C0E907214162EB
:104B600081620A21C162FDF745FD002803D0BDE83E
:104B70001040FCF732BF10BD003C00407403002021
:104B80000C4810B50A49016063214160002140F2E0
:104B9000E732C0E90212016180218161FDF716FF51
:104BA000002803D0BDE81040FCF717BF10BD00007F
:104BB000004401405C04002010B586B00024174872
:104BC00000940194029403940494134905940160A1
:104BD0006321C0E9011440F2E731C0E903144461E4
:104BE0008461FDF7F3FE08B1FCF7F7FE4FF4805047
:104BF000009069460948FDF777FF08B1FCF7EDFE24
:104C0000049404A905480594FDF7A2FE002801D0EC
:104C1000FCF7E3FE06B010BD00000140CC0300200D
:104C200010B58AB0002407941C2168460894FBF74D
:104C3000E5FF1A48184901606321C0E9011440F2F8
:104C4000E731C0E903148461FEF7E5F808B1FCF729
:104C5000C4FE079407A911480894FDF779FE08B12E
:104C6000FCF7BBFE6020CDE90004029408226946EF
:104C70000A480494FEF769F808B1FCF7AEFE0C226E
:104C800069460648FEF761F808B1FCF7A6FE03483E
:104C9000FEF732F80AB010BD0004004014040020F2
:104CA0000E4810B50C4901600D4941604FF4805128
:104CB000816000214FF48062C0E903120C22C0E938
:104CC0000521C161FEF79CFA002803D0BDE8104021
:104CD000FCF783BE10BD000000100140A4040020BA
:104CE000A08601000C4810B50A4901604FF461210B
:104CF0004160002181600C22C160C0E90412816121
:104D0000C161FEF77DFA002803D0BDE81040FCF732
:104D100064BE10BD00440040EC0400200C4810B5F7
:104D20000A4901604FF4E1314160002181600C22A9
:104D3000C160C0E904128161C161FEF761FA002817
:104D400003D0BDE81040FCF748BE10BD0014014080
:104D500034050020FEE7FEE730B4034C8466034CC4
:104D6000C46630BC01F0DABB1D6500082B65000885
:104D700070470000F8B515460E460B4600920446F3
:104D80000122022100F03CF8A0B913481349006841
:104D9000B0FBF1F04FF47A71484300906068B0F5D1
:104DA000827F0DD13346002280212046009500F0FD
:104DB00027F870B1606D40F0200060650320F8BDF9
:104DC000009830B1401E009020688068C043000603
:104DD000F6D50020F8BD00000000002000366E016E
:104DE00001B582B04FF47A700090012301AA02A9A4
:104DF0000248FDF79FFCBDF804000EBD74030020BF
:104E00002DE9F8431E46914688460446089DFDF765
:104E1000BBF8401B351AFDF7B7F807462548006870
:104E2000C0F3CB30684338E0701C37D0FDF7ACF8E6
:104E3000C01BA84203D215B1009860B32CE02068D3
:104E4000416821F0E00141606068B0F5827F0BD1DC
:104E5000A068B0F5004F02D0B0F5806F04D1206893
:104E6000016821F040010160A06AB0F5005F09D13E
:104E70002068016821F4005101602068016841F454
:104E800000510160012084F85100002084F8500096
:104E90000320BDE8F8830025401E0090206881684B
:104EA00038EA010004D000214945BDD10020F0E7D7
:104EB0000121F9E7000000207047000070B5434C65
:104EC000B0EE082A2DED028B04F12405E088F7EE00
:104ED000001AA0F5806000EE100AB8EEC00A85ED59
:104EE000000A2089C0F5806000EE100AB8EEC00A02
:104EF00085ED010A6088A0F5806000EE100AB8EE2A
:104F0000C00A85ED020AA088C0F5806000EE100A94
:104F1000B8EEC00A85ED030AA08900EE100AB8EECB
:104F2000400A9FED2B8ADFED2B8AB0EE481AF0EE97
:104F3000680A01F0EDF910EE100AFBF7B3FF41EC3F
:104F4000100B01F0F5FA00EE100AB0EE082AF7EEA9
:104F5000001AB8EEC00AB0EE481AF0EE680A85ED05
:104F6000040AE08900EE100AB8EE400A01F0D0F918
:104F700010EE100AFBF796FF41EC100B01F0D8FA87
:104F800000EE100AB0EE002AF7EE001AB8EEC00AE2
:104F9000B0EE481AF0EE680A85ED050A208A00EEA8
:104FA000100AB8EE400A01F0B3F910EE100AFBF750
:104FB00079FF41EC100B01F0BBFA00EE100AB8EEDD
:104FC000C00A85ED060ABDEC028B70BD2C090020DD
:104FD00000C0D3440080B04370B51F4C6068002807
:104FE00039DD1E49A068002591ED000A2C2280EDD4
:104FF000000A91ED010A80ED010A91ED020A80EDAF
:10500000020A91ED030A80ED030A91ED040A80ED96
:10501000040A91ED050A80ED050A91ED060A104992
:1050200080ED060A91ED1A0A80ED070A91ED190A42
:1050300080ED080A91ED180A802180ED090A0948DF
:1050400000F8285F457081707F21C17005490648CE
:10505000FEF72AFA656070BDDC00002050090020D0
:105060001007002000080020EC04002010B59FED80
:10507000271A04462DED068BB0EE60AAC0EE0A0A90
:1050800081EE200A00F00EFFDFED21AAB0EE408A8B
:10509000B0EE6A0A00F05EFEB0EE009AF7EE008A0B
:1050A00020EE090AF0EE689AB5EEC0AA40EE089A22
:1050B00048EE089AF1EE10FA25D928EE080AC0EE5B
:1050C000290AC4ED030A20EE890A84ED040AB0EE31
:1050D000680AC4ED050A18EE080AC4ED008A20EE3D
:1050E000090AC0EE290AB0EE6A0AC4ED010A00F00E
:1050F00031FE20EE090A40EE488A48EE088A88EE22
:10510000A90A84ED020ABDEC068B10BDDB0F4940F5
:10511000DB0F493FFCF73EBF30B593B03021684606
:10512000FBF76CFD14210CA8FBF768FD1C4800255B
:10513000016841F080510160006800F080501190DA
:105140001848016841F4404101600068022400F4FD
:105150004040119001200090000401908001CDE9B1
:105160000640082008906420CDE9090404200B9033
:105170006846FDF789F808B172B6FEE70CA90F2062
:1051800081E831004FF48050CDE90F0503210CA8D0
:10519000FCF79AFF002801D072B6FEE713B030BDCD
:1051A00040380240007000400248016841F470013C
:1051B0000160704788ED00E010B50448FDF703FD7D
:1051C000BDE810400248FDF7FEBC0000CC03002003
:1051D0005C040020F0B50268204B214C9F03214D58
:1051E000214E984207D0B84205D0A04203D0A84231
:1051F00001D0B04204D122F0700C4A6842EA0C029D
:10520000984210D0B8420ED0A0420CD0A8420AD08A
:10521000B04208D0154CA04205D0154CA04202D097
:10522000144CA04203D122F44074CA6822434C6952
:1052300022F08002224302608A68C2620A688262A7
:10524000984201D109690163012141610169C907DE
:1052500003D0016921F001010161F0BD00000140AE
:105260000004004000080040000C004000400140E5
:10527000004401400048014010B501F01F03012126
:10528000046A99408C430462016A9A4011430162A6
:1052900010BD10B5846842EA032224F47F440A4317
:1052A0002243826010BD826822F070020A4342F0FD
:1052B000070181607047000030B5036A026A22F07E
:1052C000010202624268846924F073050C682C4371
:1052D00023F002058B682B430A4DA8420BD123F023
:1052E0000805CB6822F440722B434D6923F0040378
:1052F00015438A692A4342608461496841630362B5
:1053000030BD00000000014030B5026A036A23F09E
:1053100010030362436884690D6824F4E64444EA98
:1053200005248D6822F0200242EA05120B4DA842A6
:105330000ED1CD6822F0800242EA05124D6923F4B5
:10534000406343EA85038D6922F0400243EA850306
:105350004360846149688163026230BD000001409E
:1053600030B5036A026A22F4807202624268C4693C
:1053700023F4007324F073050C682C438D6843EA12
:1053800005230C4DA8420ED1CD6823F4006343EAF7
:1053900005234D6922F4405242EA05128D6923F437
:1053A000806342EA05124260C4614968C1630362D6
:1053B00030BD00000000014030B5046A026A22F4EA
:1053C000805202624268C3690D6823F4E64343EAEF
:1053D00005238D6824F4005444EA0534064DA842A0
:1053E00004D14D6922F4804242EA85124260C361D1
:1053F00049680164046230BD0000014010B5036AD1
:10540000046A24F001040462846924F0F00444EA8C
:10541000021423F00A020A438461026210BD10B52F
:10542000036A046A24F010040462846923F0A00370
:1054300024F4704444EA023243EA011182610162B9
:1054400010BD10B5806B0021C185C184FDF794FDAE
:1054500010BD70B5846B2068406994F84110C0F3AA
:10546000C0100025212904D118B1E584204600F0A0
:10547000B4F82068406994F84210C0F380102229E3
:1054800004D118B1E585204600F080F8606C40F04A
:10549000100060642046FDF76FFD70BD10B5014639
:1054A000806B096809684FF00002C9052ED4C285D7
:1054B00001680C3151E8003F23F4807341E8003467
:1054C000002CF5D10168143151E8003F23F00103AD
:1054D00041E80034002CF5D10168143151E8003F57
:1054E00023F0400341E80034002CF5D1202180F85E
:1054F0004210016B012909D101680C3151E8003FCC
:1055000023F0100341E80034002CF5D14263016B15
:10551000012902D0FDF7ACFF10BD818DFDF72BFDF9
:1055200010BD10B5806B01214163016B012902D0D0
:10553000FDF7B8FF10BD818D4908FDF71CFD10BDBA
:1055400010B50146806B09680968C90516D40021A9
:10555000C1840168143151E8002F22F0800241E833
:105560000023002BF5D101680C3151E8002F42F0E7
:10557000400241E80023002BF5D110BDFDF7D0FF1C
:1055800010BD10B5806BFDF7D7FF10BD01680C3161
:1055900051E8002F22F4907241E80023002BF5D14E
:1055A0000168143151E8002F22F0010241E8002384
:1055B000002BF5D1016B012909D101680C3151E8AB
:1055C000002F22F0100241E80023002BF5D120210A
:1055D00080F8421000210163704701680C3151E8E6
:1055E000002F22F0C00241E80023002BF5D120213A
:1055F00080F84110704708B590F84210222901D078
:10560000022008BD82684FF480539A4201D101699B
:1056100021B1816A9A421BD04AB10AE00268816ACC
:105620005268C2F308020A80816A891C08E0026994
:1056300072B10268526802F07F020A70816A491CE6
:105640008162C18D491E0904090CC18503D01BE08C
:1056500002685268F1E70168CA6822F02002CA6055
:105660000168CA6822F48072CA6001684A6922F03F
:1056700001024A61202180F8421000214163026B3F
:10568000012A03D0FDF7F4FE002008BD0163016884
:105690000C3151E8002F22F0100241E80023002BCA
:1056A000F5D101680A68D20602D50A6849680091F6
:1056B000818DFDF760FCE7E770B50446006801697D
:1056C000E26821F44051114301612169A068E26957
:1056D00008436169114308432168CA6849F20C63B1
:1056E0009A430243CA6020684169A26921F440716B
:1056F0001143416131492068884202D030498842D3
:1057000002D1FCF78BFD01E0FCF778FDE269002394
:10571000192164253226B2F5004F626828D0A0FB1B
:105720000101930F9200FBF71FFA0146B0FBF5F061
:105730006FF01802504301EB800006EB0010B0FB45
:10574000F5F000F0F002B1FBF5F002EB0012B1FB56
:10575000F5F06FF01803584301EB800006EB0010E2
:10576000B0FBF5F000F00F0021681044886070BDB8
:10577000A0FB010192185B41FBF7F6F90146B0FB73
:10578000F5F00201B1FBF5F06FF01803584301EB9F
:10579000800006EBC000B0FBF5F000F0F80002EB73
:1057A0004002B1FBF5F0584301EB800006EBC0006E
:1057B000B0FBF5F000F00700D6E700000010014054
:1057C0000014014038B581620446828500201346EA
:1057D0006064222284F84220E56B1B4AEA63E56B91
:1057E0001A4A2A64E56B1A4AEA64E26B10650A46B3
:1057F0002168E06B091DFCF787FA206801684068A2
:105800000090206948B120680C3050E8001F41F436
:10581000807140E80012002AF5D12068143050E869
:10582000001F41F0010140E80012002AF5D1206874
:10583000143050E8001F41F0400140E80012002AF7
:10584000F5D1002038BD00009D5400082355000804
:10585000535400080148FDF79BBB0000A40400203E
:105860000148FDF795BB0000EC0400200148FDF75E
:105870008FBB000034050020FEE74100080218BF7E
:1058800004200A0E18BF40F001004FF07F4232EAB8
:10589000010108BF40F00200012808BF0520704741
:1058A0000907090E002804DB00F1E02080F800144D
:1058B000704700F00F0000F1E02080F8141D7047E1
:1058C00010B510EE104A4FF01A402DED028B00EB90
:1058D0004400B0F1C85F4AD84FF0FC40B0EB440F31
:1058E00022D2B0EEC00AF7EE000A30EEC00AF6EEA1
:1058F000000A20EE208A18EE100A00F095FE00EE55
:10590000100A14F0004F1DBF9FED281ADFED280A82
:10591000B1EE400A9FED271A08BFF0EE410AF8EEFB
:10592000001A20EE210A05E020EE008A9FED221ADF
:10593000DFED220ADFED221A9FED222A70EEC00A67
:1059400020EE080A08EE212ADFED1F1A48EE021A9F
:105950009FED1E2A08EE212ADFED1D1A48EE021ADD
:10596000BDEC028B40EE610A30EE810A10BD4FF0B3
:10597000CC40B0EB440F82BF9FED160ABDEC028B0A
:1059800010BD4FF07F40B0EB440F05D2BDEC028B51
:10599000BDE8104000F044BB012000F011FCBDEC5C
:1059A000028BBDE8104000F041BB00000000494000
:1059B00022AA7D3A000000000000C93F22AAFD395A
:1059C00024FE1C3DC78AD83C1E67383D1B93993D79
:1059D000AFAA2A3EDB0FC93F10B54FF00E402DEDA8
:1059E000028BB0EE408A18EE104A00EB4400B0F192
:1059F000506F4AD84FF0FC40B0EB440F22D2B0EECB
:105A0000C80AF7EE000A30EEC00AF6EE000A60EEB1
:105A1000208A18EE900A00F007FE01EE100A14F03A
:105A2000004F1DBFDFED2D0A9FED2D0AB1EE411A8B
:105A3000DFED2C0A08BF9FED2C0AF8EE001A21EECC
:105A4000218A05E0DFED290A68EE088AB0EE600AD7
:105A50009FED271ADFED271A30EE080A48EE811A6B
:105A60009FED251A08EEA11ADFED241A48EE811ADF
:105A70009FED231A08EEA11A68EE281ABDEC028BDE
:105A800001EE810A30EE200A10BD4FF0E440B0EB89
:105A9000440F0CD918EE100AFFF7EFFE042808BFD8
:105AA00000F0CCFAB0EE480ABDEC028B10BD4FF00E
:105AB0007F40B0EB440F07D2B0EE480ABDEC028B3A
:105AC000BDE8104000F0ACBA012000F079FBBDEC5D
:105AD000028BBDE8104000F0A9BA00000000C9BF69
